:100000000C949E020C94BF020C94BF020C94BF028D
:100010000C94BF020C943A0E0C94BF020C94C10EC7
:100020000C94BF020C94BF020C94BF020C94BF024C
:100030000C94BF020C94D95D0C94BF020C94BF02C7
:100040000C94BF020C94BF020C94BF020C94BF022C
:100050000C94BF020C94750F0C94BF020C94BF0259
:100060000C94BF020C94C50F0C94BF020C94BF02F9
:100070000C94BF020C94BF020C94BF020C94BF02FC
:100080000C94BF020C94BF020C94BF020C94BF02EC
:100090000C94F40F0C94BF020C94BF020C94BF029A
:1000A0000C94BF020C94BF020C94BF020C94BF02CC
:1000B0000C94BF020C94BF020C94BF020C940E5D12
:1000C0000C94BF020C94BF020C94BF020C94BF02AC
:1000D0000C94BF020C94BF020C94BF020C94BF029C
:1000E0000C94BF020C94B6140C94C0140C94AC1471
:1000F0000C9474140C94EC140C94E2140C94D61418
:100100000C94CA140C94BF020C94BF020C94BF024E
:100110000C94BF020C94BF020C94BF020C94BF025B
:100120000C94BF020C94BF020C94BF020C94BF024B
:100130000C94BF02E22801297F296E2A8E2AAE2A5A
:10014000B62A632A0C94A05E0C94DD110C943D1524
:100150000C94D4110C94C7430C942E5B0C94F43083
:100160000C94E3020C94BD100C94AE2A0C945E68BF
:100170000C94790B0C94724F0C94C1020C94D85CC3
:100180000C94E9580C94632A0C944D5F0C945C0C0D
:100190000C94814F0C946E4F0C9492500C94A35875
:1001A0000C94B4310C9404140C94F0580C94710514
:1001B0000C946E2B0C94750D0C947C4F0C94DB5CA2
:1001C0000C94B4100C94DF350C9417060C945A4E12
:1001D0000C9426430C94D65C0C9452160C94A44FA9
:1001E0000C94EC100C9488610C94821F0C9469366A
:1001F0000C94E2120C94F8680C9484130C94F70D90
:100200000C94995A0C94C0100C94B7100C94E25CA6
:100210000C9450430C94080E0C943C2E0C94535B9D
:100220000C9444110C94D5530C940E680C94A6585D
:100230000C94A33A0C941B110C94FC640C9462591A
:100240000C94BA100C946E2A0C9422430C948E2AAF
:100250000C94F52C0C9461050C9402660C94774F69
:100260000C9405590C943C130C9423430C94F350B8
:100270000C9455100C9401290C947D690C94930EE8
:100280000C947F290C9465120C94760E0C94820EBB
:100290000C94E2280C94A7430C94FD3D0C94E05C74
:1002A0000C948D610C94B62A0C94EB0D0C94310CCB
:1002B0000C94F0470C946A4F0C948B4F0C94700480
:1002C0000A00200053657276657220495076362008
:1002D0006164647265737365733A0A00476F7420D2
:1002E00072657175657374206D65737361676520E0
:1002F0006F6620747970652025630A000A005365D3
:100300007474696E67207072656669782000476F43
:100310007420636F6E66696775726174696F6E20B1
:100320006D657373616765206F66207479706520F1
:1003300025630A000A00206473743D00736C6970C1
:100340002D6272696467653A2044657374696E61F1
:1003500074696F6E206F66662D6C696E6B206275B6
:1003600074206E6F20726F757465207372633D0028
:100370002578003A003A3A004E657665722D75731D
:10038000656420737461636B203E2025642062796C
:100390007465730A000A2D2D2D2D2D2D2D2D2D0A5E
:1003A0000020203C6E6F6E653E002920256C757321
:1003B0000A002F2575202876696120000A526F7582
:1003C000746573205B2575206D61785D0A000A00F5
:1003D0000A4E65696768626F7273205B2575206DD0
:1003E00061785D0A000A000A41646472657373658E
:1003F00073205B2575206D61785D0A002575730A91
:10040000004F6E6C696E650A00526F7574696E6795
:1004100020456E61626C65640A0052504C20456E46
:1004200061626C65640A0025732025732C20636863
:10043000616E6E656C202575202C20636865636B8A
:10044000207261746520257520487A2074782070A8
:100450006F7765722025750A004555492D36342081
:100460004D41433A2025782D25782D25782D257866
:100470002D25782D25782D25782D25780A00506199
:100480006E69643A25780A0052616E646F6D20458A
:100490005549363420616464726573732067656EF4
:1004A0006572617465640A000A2A2A2A2A2A2A2A9D
:1004B000426F6F74696E672025732A2A2A2A2A2AB6
:1004C0002A0A0047656E65726174696E6720726101
:1004D0006E646F6D204555493634204D41430A0006
:1004E000454550524F4D20697320636F727275708D
:1004F000742C20726577726974696E6720776974ED
:10050000682064656661756C74732E0A006C6F6395
:10051000616C686F73740041544D45474132353604
:1005200072667232002578003A003A3A00284E5539
:100530004C4C2049502061646472290011241FBE74
:10054000CFEFD1E8DEBFCDBF00E00CBF15E0A0E0EB
:10055000B2E0E6E7FEED00E00BBF02C007900D92AF
:10056000A23CB107D9F726E2A2ECB5E001C01D928A
:10057000A432B207E1F70E94A4090C94396F0C94DD
:100580000000CF93DF93EC01CA0128813981211546
:10059000310539F02436310561F01982188283E083
:1005A0000FC00E94040884E690E09983888381E06C
:1005B00007C0209116256213FACF0E947E07F3CF61
:1005C000DF91CF9108952F923F924F925F926F9259
:1005D0007F928F929F92AF92BF92CF92DF92EF92D3
:1005E000FF920F931F93CF93DF938C01DC015996F9
:1005F0008D919C915A97823D9105B9F18115B1E099
:100600009B0709F4B4C0892B09F0CFC01092CF0525
:100610001092CE0580919402909195020E94B95556
:100620000EC01092CF051092CE056091C405709156
:10063000C50580919402909195020E949A559093DD
:10064000C5058093C4058091C4059091C505892B8B
:1006500001F18091CE059091CF05843D910528F35D
:1006600082ED90E0F801928F818FE0EDF5E0DF01FF
:100670000D900020E9F7AD0141505109405D554012
:10068000BF01C80149960E941D3B823054F680E0AC
:10069000FEC01092CF051092CE050E94A61E909328
:1006A000C3058093C2058090C2059090C305811454
:1006B000910409F47AC0C0E0D0E0E12CF12CF4E020
:1006C0008F0E911C8DE2A82E83E0B82EC12CDD2464
:1006D000D3942BE2222E23E0322EF401EE0DFF1DE7
:1006E0006080712C762C66248181680E711C6114E7
:1006F000710409F082C0D7FD83C0209709F45AC065
:10070000219692E0E90EF11CA0E1EA16F10429F726
:10071000C091CE05D091CF05E091C205F091C305FF
:10072000848D1F928F9380E393E09F938F93E12CAE
:10073000FF24F394C7018C1B9D0B9F938F93CE01D5
:1007400080539A4F9F938F930E94EE6B8C0F9D1F47
:100750009093CF058093CE05F801F28EE18E8DB790
:100760009EB708960FB6F8949EBF0FBE8DBFE0ED02
:10077000F5E0DF010D900020E9F7AD01415051098E
:10078000405D5540BF01C80149960E941D3B823023
:100790000CF47DCF1092CF051092CE058091C2054A
:1007A0009091C3050E94AA1E7ACFF801128E118E75
:1007B00083E06DC0C091CE05D091CF05AAE2B3E031
:1007C000BF93AF93C6018C1B9D0B9F938F93CE015C
:1007D00080539A4F9F938F930E94EE6B8C0F9D1FB7
:1007E0009093CF058093CE050F900F900F900F90B0
:1007F0000F900F90C1E0D0E084CF1C161D0614F1BD
:10080000E114F10409F14090CE055090CF053F92DC
:100810002F92C601841995099F938F93C20180532B
:100820009A4F9F938F930E94EE6B840D951D90932A
:10083000CF058093CE050F900F900F900F900F90E3
:100840000F9002C0CFEFDFEF4090CE055090CF0564
:100850007F926F92BF92AF92C601841995099F93C0
:100860008F93C20180539A4F9F938F930E94EE6B98
:10087000840D951D9093CF058093CE058DB79EB7BF
:1008800008960FB6F8949EBF0FBE8DBF3ACFDF918A
:10089000CF911F910F91FF90EF90DF90CF90BF907D
:1008A000AF909F908F907F906F905F904F903F9010
:1008B0002F90089583EE92E008958FE3809396231E
:1008C00080E58093972382E090E090938723809344
:1008D00086230E943E0D109287231092862308954E
:1008E000CF92DF92EF92FF920F931F93CF93DF93FC
:1008F0008C01FC01808191818236F1E09F0731F10A
:10090000D8F4892B09F040C084E00E94AC1010920A
:10091000D006E0918705F091880580E090E0199578
:1009200040E050E065E880918209909183090E943F
:100930005C1882E691E024C08337E1E09E0709F469
:1009400061C08038914009F466C01EC0653809F066
:1009500060C0E091EC04F091ED0461E070E081E8AA
:1009600090E019958091D006811113C060E870E085
:1009700086EC95E00E94EF150E945D0483E791E00C
:10098000F8019183808345C0F8011182108283E0D1
:100990004DC0E0918705F091880581E090E01995C0
:1009A00084EC92E09F938F930E94CA6BC4E1D2E2E1
:1009B0000F900F9052ECC52E52E0D52E60ECE62E33
:1009C00062E0F62E8881FE0171979081992391F063
:1009D000823080F4DF92CF920E94CA6BCE014097A2
:1009E0000E94303AFF92EF920E94CA6B0F900F90D4
:1009F0000F900F906C96F2E2C438DF0719F780E889
:100A000091E0BECF86EC95E00E940D16892B09F08F
:100A1000A9CF81E00BC080914F216813F0CF485ED1
:100A2000544069F78EE10E948A48E9CFDF91CF9167
:100A30001F910F91FF90EF90DF90CF900895CF938B
:100A4000DF93CDB7DEB760970FB6F894DEBF0FBE69
:100A5000CDBF20E1FC01A1EDB6E001900D922A95F9
:100A6000E1F720E1FC01DE01119601900D922A953B
:100A7000E1F781E08093D0066EE873E2CE01019643
:100A80000E949E1C21E040E050E0BA01CE01019698
:100A90000E94911BBE016F5F7F4F8EE10E94E34871
:100AA000009731F040E450E061ED76E00E940D45A2
:100AB00060960FB6F894DEBF0FBECDBFDF91CF9129
:100AC000089560E072EC81E090E00E94500C60E0DC
:100AD00070E08EE392E00E94891881E795E00C9423
:100AE000390D0F931F93CF93DF93CDB7DEB7609788
:100AF0000FB6F894DEBF0FBECDBF80919623813232
:100B0000F1F5809197231F928F938EE093E09F934E
:100B10008F930E94CA6B10928723109286230F90A6
:100B20000F900F900F9080919723803509F06BC044
:100B30008E010F5F1F4F80E1D8011D928A95E9F762
:100B400088E0E8E9F3E2D80101900D928A95E1F797
:100B50008EEF92E09F938F930E94CA6BC8010E9410
:100B6000303A8CEF92E09F938F930E94CA6BC8013A
:100B70000E941F050F900F900F900F9044C08F336D
:100B800009F041C0809197231F928F938CED92E0E2
:100B90009F938F930E94CA6B0F900F900F900F90AE
:100BA000809197238D3459F581E2809396236EE8E6
:100BB00073E2E9E9F3E2DB018D91BD01AF01415040
:100BC0005109282F22952F7030E0245A3C4FD9012B
:100BD0009C91DA019C938F7090E0845A9C4FDC01C9
:100BE0008C9180833296B3E266397B0721F782E1EC
:100BF00090E090938723809386230E943E0D10926D
:100C000087231092862380E1EEE9F3E2A1EEB6E0BD
:100C100001900D928A95E1F760960FB6F894DEBFC9
:100C20000FBECDBFDF91CF911F910F91089540E18D
:100C300050E06EE973E281EE96E00E947E6B892BB4
:100C400009F58CE393E09F938F930E94CA6B8EE922
:100C500093E20E94303A86E393E09F938F930E9441
:100C6000CA6B8EEA93E20E94303A84E393E09F934A
:100C70008F930E94CA6B0F900F900F900F900F9060
:100C80000F9008950C943E0DEF92FF920F931F93D7
:100C9000CF93DF93EC018C819D818E39910589F092
:100CA00040F4892B09F064C08EE990E09D838C8329
:100CB00008C0833A9105E1F08A3B910509F450C0E0
:100CC00057C060E2CE0104960E949D3B823014F42E
:100CD00080E051C044E050E06AEC73E0CE01C09681
:100CE0000E94AD6B892B89F483EA90E09D838C830D
:100CF0007E0184E0E80EF11C60E2C7010E949D3B8A
:100D0000823034F388A98F3239F080E18093222435
:100D10001D821C8282E02FC089A98E01065B1F4FB5
:100D2000803231F48FE299E6F801918380830FC01D
:100D3000C7010E94823B8C0F9D1FFC0117A642E059
:100D400050E0BE01605D7F4FC8010E94BB6B81E037
:100D5000FE01E25BFF4F80838AEB90E09D838C83F2
:100D60006AE0CE0104960E949D3B8230ACF7B0CF82
:100D70001D821C8283E0DF91CF911F910F91FF9024
:100D8000EF900895CF93DF93EC01898D9A8D833690
:100D9000910549F086379105D9F0892B19F583E63D
:100DA00090E09A8F898FFB0101900020E9F7AF0155
:100DB00041505109461B570BCE0149960E941D3BDD
:100DC000823014F480E011C086E790E09A8F898F1A
:100DD0004BE150E062E874E0CE0149960E941D3B71
:100DE000823084F31A8E198E83E0DF91CF910895BB
:100DF0000F931F93CF93DF93EC018EA59FA58838A7
:100E00009105B1F130F4009769F08638910519F138
:100E10006DC08E38910509F44EC08F38910509F4E4
:100E200055C064C08E01045B1F4FD8011D921C92F7
:100E3000CE01855B9F4F0E945A04F8019183808305
:100E4000892BA9F58FE29EE632979183808386E80D
:100E500090E09FA78EA76FEC73E0CE010E94C206C0
:100E6000823014F480E045C088E890E09FA78EA708
:100E7000898D9A8D009721F08635910529F00EC055
:100E800086E590E09A8F898F48E550E061E773E04E
:100E9000CE0149960E941D3B823024F31A8E198E92
:100EA00080E1809322241FA61EA682E022C08EE845
:100EB00090E09FA78EA76CE274E0CE010E94C2066C
:100EC000823084F28FE890E09FA78EA78E01045BAA
:100ED0001F4FD801ED91FC91CE011995823014F28B
:100EE000F8011182108280E1809322241FA61EA6A1
:100EF00083E0DF91CF911F910F9108950F931F937E
:100F0000CF93DF93EC0180912224982F907311F4FA
:100F100087FF11C0209709F472C0FE01E45BFF4F08
:100F200011821082BE0188E192E0DF91CF911F9182
:100F30000F910C94E31986FF35C088E192E00E947E
:100F4000BE19EC01009709F457C0BC018091292417
:100F500090912A240E94853C49E150E08E01005D79
:100F60001F4FB801CE0104960E943E3C49E150E07B
:100F7000B801CE0149960E943E3C1FA61EA6FE0166
:100F8000E45BFF4F11821082025E1F4FF801108256
:100F900060E075E0CE010E94F218CE010E94440686
:100FA000F80120C0209741F183FF13C0CE010E94B9
:100FB0001219892B89F080E280932224FE01E45BE0
:100FC000FF4F11821082BE0188E192E00E94E31976
:100FD00003C0CE010E940819CE010E944406FE0102
:100FE000E25BFF4F8081813051F4CE01DF91CF91E0
:100FF0001F910F910C94F80680E280932224DF91D8
:10100000CF911F910F91089580E090E50E94683C78
:1010100088E192E00C94A0197F928F929F92AF92F8
:10102000BF92CF92DF92EF92FF920F931F93CF93D5
:10103000DF934C01C0E0D0E0712C90E7E92E93E003
:10104000F92E23E7C22E23E0D22E35E7A32E33E07C
:10105000B32EF401EC0FFD1F008110E0102F0027CC
:101060008181080F111D0115110569F477FC0DC070
:1010700011E0170D71101FC0BF92AF920E94CA6B92
:101080000F900F9018C017144CF0CC2349F0DF924A
:10109000CF920E94CA6B0F900F9002C077247A946F
:1010A0001F930F93FF92EF920E94CA6B0F900F90C5
:1010B0000F900F90172D2296C031D10511F0712E8F
:1010C000C8CFDF91CF911F910F91FF90EF90DF90EC
:1010D000CF90BF90AF909F908F907F900895E6E45F
:1010E000F1E030812081908180818295869586957E
:1010F0008370307C830F269526952073820F9295FE
:101100009C70890F0895FF920F931F93CF93DF93E5
:10111000CDB7DEB728970FB6F894DEBF0FBECDBFB0
:101120000E9485100E94911046E069E180E00E94D3
:10113000231080E00E947C100E94FA0E84B784B7CE
:1011400084B784B784B7E4E2F6E222E432E4318380
:1011500020833A968DB79EB70A97E817F907B8F338
:101160008EE994E09F938F9388EA94E09F938F9306
:101170000E94CA6B0E94B6180E94E91760E070E0F6
:1011800080E692E00E9489180E94B616E091090557
:10119000F0910A0519950E946F0890E00E94A8102E
:1011A000CE0101960E94620B0F900F900F900F904E
:1011B000882341F088E894E09F938F930E94CA6B44
:1011C0000F900F9088E0FE013196AEE8B3E20190F7
:1011D0000D928A95E1F7CE0101960E949E580E94D9
:1011E0006D0B9F938F938EE794E09F938F930E9454
:1011F000CA6B0E94710B8C010E946D0BAE014F5F98
:101200005F4FB8010E94B4120E94C70A0E949F1249
:101210000E94750B0E94761388851F928F938F8191
:101220001F928F938E811F928F938D811F928F9328
:101230008C811F928F938B811F928F938A811F9233
:101240008F9389811F928F9389E594E09F938F9369
:101250000E94CA6B0E94EF53E091A005F091A10596
:101260001995E0917F05F09180051995E0914D0564
:10127000F0914E0519950E947813F82E0091AC0557
:101280001091AD05F80119950FB6F894DEBF0FBEA9
:10129000CDBF892B51F0F8011995BC0180E890E091
:1012A0000E94BC6A162F072F02C010E800E00E94BF
:1012B0009C121F92FF920F931F931F928F93809106
:1012C0009F058F9380919E058F9380917E058F93CC
:1012D00080917D058F9387E294E09F938F930E9486
:1012E000CA6B8AE194E09F938F930E94CA6B89E056
:1012F00094E09F938F930E94CA6B60E070E082EB52
:1013000092E00E94891860E070E086E292E00E941C
:10131000891886E593E00E94F81481E094E09F9399
:101320008F930E94CA6B0FB6F894DEBF0FBECDBF7D
:1013300028960FB6F894DEBF0FBECDBFDF91CF91D8
:101340001F910F91FF9008950E9483085CE3C52EC2
:10135000D12CE12CF12C68E5462E62E0562E612C52
:10136000712C02EB13E00E94F9170E949D108090EF
:101370004B2190904C21A0904D21B0904E210E9485
:10138000160F86169706A806B90669F30E94160F6F
:10139000EB01382E292E60934B21D0934C21809362
:1013A0004D2190934E21A70196010E94E46A672B7C
:1013B000682B692B81F42F923F92DF93CF93ACEF90
:1013C000B3E0BF93AF930E94CA6B0F900F900F9042
:1013D0000F900F900F9060914B2170914C21809154
:1013E0004D2190914E21A30192010E94E46A623046
:1013F00071058105910509F09EC01F9284E08F93CD
:10140000A7EEB3E0BF93AF930E94CA6BC3E0D2E2F2
:101410000F900F900F900F908881882361F0CE017C
:1014200001960E940C08A5EEB3E0BF93AF930E9413
:10143000CA6B0F900F906C9632E2C337D30761F7F7
:101440001F9284E18F9380ED93E09F938F930E948E
:10145000CA6B80919402909195020E94B955EC015B
:101460000F900F900F900F902097A1F0CE010E9447
:101470000C08AEECB3E0BF93AF930E94CA6BBE0101
:1014800080919402909195020E949A55EC010F90E0
:101490000F90EACF1F9284E18F938CEB93E09F93A0
:1014A0008F930E94CA6B0E94A61EEC010F900F90B2
:1014B0000F900F9081E0209761F1CE0104960E9479
:1014C0000C088C8D1F928F931F930F930E94CA6BF1
:1014D000CE010E94981E0E940C088F898F938E89DE
:1014E0008F938D898F938C898F93AAEAB3E0BF93F2
:1014F000AF930E94CA6BCE010E94AA1EEC0180E04D
:10150000ADB7BEB71A960FB6F894BEBF0FBEADBF4B
:10151000D2CF882341F081EA93E09F938F930E947A
:10152000CA6B0F900F9085E993E09F938F930E9471
:10153000CA6B0F900F9080914B2190914C21A091FC
:101540004D21B0914E219370AA27BB270397A10587
:10155000B10509F008CFE4E2F6E28081918182349E
:10156000924479F0E452F642FF93EF9388E793E0D8
:101570009F938F930E94CA6B0F900F900F900F90C4
:10158000F2CE3A96E53F21E8F20738F3ECCE1F930E
:10159000CF93DF93CDB7DEB7A0970FB6F894DEBF39
:1015A0000FBECDBF85E090E00E943E6E182F282F21
:1015B00035EF380F303108F0982F9095291709F43E
:1015C00076C080EE94E09F938F930E94CA6B83EC69
:1015D00094E09F938F930E94CA6B82E089830E945C
:1015E0006F088A830E946F088B838FEF8C838EEF46
:1015F0008D830E946F088E830E946F088F830E94E4
:101600006F08888781E080939107F89448E050E064
:1016100061E270E0CE0101960E94446EE7E1F5E0E0
:101620000F900F900F900F90DE01119684918D9383
:10163000319685E0E532F807C9F74EE050E063E106
:1016400070E0CE0101960E94446EEDE0F5E0DE010F
:10165000119684918D93319685E0E731F807C9F7AB
:101660004AE050E069E070E0CE0101960E94446ECD
:101670006DEC7BEA83E090E00E945C6E60E070E0DD
:1016800081E090E00E945C6E60E080E090E00E946B
:101690004E6E60E070E087E090E00E945C6E1AE1C0
:1016A0006AE175EE85E090E00E945C6E7894812F8F
:1016B000A0960FB6F894DEBF0FBECDBFDF91CF91DD
:1016C0001F910895F89448E050E061E270E00E94B4
:1016D000266E789480919107089583E090E00C94B1
:1016E0003E6E81E090E00C943E6E80E090E00C94C1
:1016F000366ECF93DF93EC0188819981873791050E
:1017000009F457C08E37910509F470C0892B09F090
:1017100084C00E94E21780934F2110929507109287
:1017200094078091940790919507FC01EE0FFF1F9D
:10173000E05EFD4F0190F081E02D3097B1F0DC01CB
:10174000A85BBE4D1C920480F581E02D60E070E046
:1017500080E890E019958091940790919507019603
:101760009093950780939407DCCF8093960787E743
:1017700090E039C0FC01E85BFE4D208127FD22C0CE
:101780008091940790919507019690939507809387
:10179000940780919407909195072091960730E0E7
:1017A000821793073CF38091920790919307892BBE
:1017B000F1F21092930710929207109295071092EF
:1017C0009407E7CFFC01EE0FFF1FE05EFD4F408165
:1017D000518160914F2180E090E00E945C18892B3C
:1017E00049F48EE790E0998388831BC080914F2154
:1017F000681317C0E0919407F0919507E85BFE4DE0
:1018000080818F77808380919207909193070196D2
:101810009093930780939207B3CF1982188283E045
:1018200001C081E0DF91CF9108954091960750E08B
:10183000E0E2F2E020E030E0241735072CF461917B
:1018400071916817790751F4F901E85BFE4D8081C9
:101850008068808386E292E00C94AA182F5F3F4F45
:10186000EBCFCF93C82F80919707811109C080ECEF
:101870000E9478108DE00E94781081E08093970795
:101880008C2F0E947810CA3029F480EC0E947810C6
:10189000109297078C2F992787FD9095CF910895E7
:1018A00065E77DE080E00E946A1080E392E090931B
:1018B0002126809320260895AF92BF92CF92DF9287
:1018C000EF92FF920F931F93CF93DF935C01FC0184
:1018D00080819181009741F082309140D1F0F501F3
:1018E0001182108283E0BAC010929B0710929A076F
:1018F000109239081092380810923B0810923A085A
:1019000081E080933C0882E091E0F501918380833F
:1019100002C0623811F081E0A1C011E010935021A3
:10192000C0913A08D0913B08CE018456984F6C0183
:10193000FC018081833499F58091380890913908B1
:10194000C817D90760F58C1B9D0B069740F146E040
:1019500050E060EC74E0C6010E947E6B892BF9F4C4
:1019600086E0F60111928A95E9F710929B07109292
:101970009A07109239081092380810923B0810927A
:101980003A0810933C08C7ECD4E089910E94781083
:10199000F4E0C43DDF07C9F700E010E04EC0E0907E
:1019A0009A07F0909B07CE15DF05B1F38701CE159E
:1019B000DF0560F40C1B1D0B0D38110528F5A8017F
:1019C000B60186E993E20E948B6B20C004561F4F3C
:1019D0000C1B1D0B0D381105B8F4A6E9B3E2CC3988
:1019E000D10538F4FE01E456F84F80818D9321969D
:1019F000F6CFECE9F7E0C7018456984FE817F907EE
:101A000029F021912D93FACF00E010E0F0923B08ED
:101A1000E0923A0880913C0881110FC0809138080B
:101A20009091390890939B0780939A0781E0809367
:101A30003C088EE392E00E94AA181093872300933B
:101A40008623012B09F45FCFE0919807F091990765
:101A5000309709F019950E94A63C55CFDF91CF91A0
:101A60001F910F91FF90EF90DF90CF90BF90AF90BC
:101A70000895909399078093980708950F931F9363
:101A8000CF93DF9380EC0E947810E6E9F3E2C0E0A8
:101A9000D0E08091862390918723C817D907E0F47E
:101AA000CC33D10521F4E0912724F09128248F0133
:101AB0000F5F1F4F8081803C29F48BED0E947810CE
:101AC0008CED05C08B3D19F40E9478108DED0E94BD
:101AD00078102196F801DDCF80EC0E94781080E02C
:101AE000DF91CF911F910F91089590913C08913013
:101AF000B9F008F46DC0923039F09330D1F5803CE4
:101B000009F066C081E00FC08C3D29F08D3D09F0E1
:101B100043C08BED01C080EC91E090933C0829C05C
:101B20008B3D21F482E080933C0852C0803C09F553
:101B3000809138089091390820919A0730919B073D
:101B40008217930709F444C040913A0850913B082A
:101B50004217530729F490939B0780939A0702C07A
:101B600010923C088EE392E00E94AA1881E090E077
:101B7000089560913808709139089B012F5F3F4F9D
:101B80002C39310511F420E030E040913A085091B1
:101B90003B082417350761F483E080933C0880916B
:101BA0009A0790919B07909339088093380810C04A
:101BB000FB01E456F84F80833093390820933808AE
:101BC000843531F4FA01E456F84F8081833451F2C0
:101BD00080E090E0089581589109029728F480915F
:101BE0003D0890913E08089580E090E00895649B40
:101BF0000CC08FE398E00E94121931E020E0892B9D
:101C000009F030E0832F922F089581E090E008954D
:101C10008138910549F5672B09F180913D08909134
:101C20003E08892B21F50E94F85C60E070E08FE3AC
:101C300098E00E94F2188DB18DB9749A80916A0073
:101C4000816080936A00EC9A81E090E090933E0876
:101C500080933D0878940E94FB5C09C010923E0876
:101C600010923D08EC9803C080E090E0089581E078
:101C700090E008951F920F920FB60F9211240BB6A9
:101C80000F922F933F934F935F936F937F938F9315
:101C90009F93AF93BF93EF93FF93E29914C08FE3A9
:101CA00098E00E941219892B71F00E94F85C60E2A2
:101CB00070E08FE398E00E94F21888EE94E00E94B2
:101CC000150C0E94FB5CFF91EF91BF91AF919F912A
:101CD0008F917F916F915F914F913F912F910F90D5
:101CE0000BBE0F900FBE0F901F9018958158910951
:101CF000029728F48091430890914408089580E069
:101D000090E00895769B0CC085E498E00E9412193B
:101D100031E020E0892B09F030E0832F922F0895E5
:101D200081E090E008958138910529F5672BE9F06D
:101D30008091430890914408892B01F560E070E0A0
:101D400085E498E00E94F2188DB18DB9769A809161
:101D50006A00806380936A00EE9A81E090E090933D
:101D60004408809343087894089510924408109290
:101D70004308EE9803C080E090E0089581E090E091
:101D800008951F920F920FB60F9211240BB60F9267
:101D90002F933F934F935F936F937F938F939F9373
:101DA000AF93BF93EF93FF938CB3867081F485E478
:101DB00098E00E941219892B51F060E270E085E4EE
:101DC00098E00E94F21884EF94E00E94150CFF91B5
:101DD000EF91BF91AF919F918F917F916F915F91A3
:101DE0004F913F912F910F900BBE0F900FBE0F9010
:101DF0001F901895F8941092B60016BC89E787BD1D
:101E000082E084BD95E095BD95B395BB80936E004F
:101E1000789408958091490890914A082091490842
:101E200030914A0882179307A9F708950F931F93DB
:101E300060915521709156218091572190915821A0
:101E40000091552110915621209157213091582110
:101E5000601771078207930759F71F910F91089533
:101E6000CF939C01CFB7F8948091490890914A088C
:101E7000820F931F90934A088093490880915121C3
:101E800090915221A0915321B0915421F901E03851
:101E9000F105B8F0E058F1094091552150915621D3
:101EA00060915721709158214F5F5F4F6F4F7F4F67
:101EB0004093552150935621609357217093582198
:101EC000E6CF220F232F221F330B3195820F931F52
:101ED000A11DB11D8093512190935221A0935321B4
:101EE000B0935421CFBFCF9108951F920F920FB698
:101EF0000F9211240BB60F922F933F934F935F9342
:101F00006F937F938F939F93AF93BF93EF93FF93C1
:101F10008091490890914A08019690934A088093CD
:101F200049088091490890914A088F779927892B11
:101F300099F48091552190915621A0915721B0910B
:101F400058210196A11DB11D8093552190935621D2
:101F5000A0935721B09358210E942016892B11F08D
:101F60000E943915FF91EF91BF91AF919F918F9191
:101F70007F916F915F914F913F912F910F900BBE89
:101F80000F900FBE0F901F9018951F920F920FB6D3
:101F90000F9211240BB60F922F933F934F935F93A1
:101FA0006F937F938F939F93AF93BF93EF93FF9321
:101FB0008091C600E0915B21F0915C21309709F09F
:101FC0001995FF91EF91BF91AF919F918F917F9163
:101FD0006F915F914F913F912F910F900BBE0F909A
:101FE0000FBE0F901F9018951F920F920FB60F9271
:101FF00011240BB60F922F933F934F935F936F93E0
:102000007F938F939F93AF93BF93EF93FF938091B1
:10201000CE00E0915921F0915A21309709F019959D
:10202000FF91EF91BF91AF919F918F917F916F91B0
:102030005F914F913F912F910F900BBE0F900FBE6C
:102040000F901F90189581110EC01092C5006093DB
:10205000C40088E98093C1004093C20010925C21C3
:1020600010925B210895813069F41092CD00609345
:10207000CC0088E98093C9004093CA0010925A218D
:10208000109259210895811107C08091C00085FFE9
:10209000FCCF6093C6000895813031F48091C80070
:1020A00085FFFCCF6093CE000895CF93C82F8A3070
:1020B00031F46DE080914B080E94431002C08D30D6
:1020C00029F06C2F80914B080E94431080E090E033
:1020D000CF910895811105C070935C2160935B21BD
:1020E0000895813021F470935A2160935921089505
:1020F000682F80E00C94431080934B0888E492E0B2
:102100009093212680932026089584B7877F84BFEB
:1021100088E10FB6F89480936000109260000FBEC3
:1021200008952FE088E190E00FB6F894A895809389
:1021300060000FBE209360000895A895089588E17F
:102140000FB6F89480936000109260000FBE08955F
:102150000C94736B0C946F6B809590914C08892351
:1021600080934C080C94FE5C81E090E0089581E03F
:1021700090E0089581E090E0089581E090E0089576
:102180008091602190E008958091390181FF09C01C
:10219000809139018D7F8093390189E190E0019729
:1021A000F1F723E040E06FE182E491E00E941E1429
:1021B00085E090E00197F1F708959091390191FD44
:1021C0000AC0282F803108F02FE040E06FE085E45E
:1021D00091E00C941E140895AB0122E0260F27FD18
:1021E00008C0BC018DE498E00E948B6B80E090E019
:1021F00008958FEF9FEF08958091390181FD10C000
:1022000040E06FE181E491E00E9414148F3131F0DD
:10221000982F9F7E915081E0923018F480E00895CD
:1022200081E008958091390181FD04C00E94FC1075
:102230008823C1F308958091390181FD0EC040E0EB
:102240006FE181E491E00E941414282F2F7E81E039
:1022500090E0213021F080E0089580E090E0089542
:102260001092E8218091390181FD0DC00E94121168
:102270008091390181FD07C00E94C410809139010D
:1022800082608093390108958091E821882321F0AC
:102290000E94FC100E94301180E090E0089540E020
:1022A0006FE181E491E00C941414CF93DF93C82F75
:1022B00088EF8C0F823038F08C2F8F7E863019F0AB
:1022C000C93109F048C08091390181FD47C00E94A1
:1022D00012110E944F11D82FC817D1F1C83029F41C
:1022E000809139010E94C41024C0C93119F486318B
:1022F00081F404C0C63169F4893159F429E040E021
:102300006FE182E491E00E941E14E5E0F0E0319775
:10231000F1F72C2F40E06FE182E491E00E941E145F
:10232000D83019F4E1EDF2E002C0E5E0F0E03197D9
:10233000F1F70E944F118C1759F0C63029F4813003
:1023400039F083E490E00CC0C631D9F78131C9F788
:1023500080E490E005C082E490E002C084E490E074
:10236000DF91CF91089581E08093E8219091390128
:1023700091FF15C08093E7212FB7789480913901A0
:10238000809139018D7F8093390180E197E230910E
:10239000E721332319F001970097C9F72FBF86E192
:1023A0000E9455110C9412118091E821811102C0F4
:1023B0000E94B31181E090E008950F931F93CF9393
:1023C000DF931F92CDB7DEB78091E821882361F0BB
:1023D0008091390181FF02C080E033C00E94FC106F
:1023E0008823D1F310E003C00E94D41111E080E8EB
:1023F0008093550186E00E94551181E08093612110
:102400008FB789837894109247018091612181115F
:10241000FCCF89818FBF9091470181E09E3008F009
:1024200080E0082F019586E10E9455111092550118
:1024300011110E9444110295069506950370802F94
:10244000817090E00F90DF91CF911F910F910895CF
:102450008FEF80934E0120E044E060EF8CE691E046
:102460000E941E1420E041E06EE08CE691E00E94A4
:102470001E1480E880936F018091460180936D0166
:1024800021E047E060E884E491E00E941E1420E02F
:1024900046E060E484E491E00E941E1421E042E002
:1024A00064E08DE491E00E941E1421E041E063E0CD
:1024B0008DE491E00E941E14569A5E9A21E045E058
:1024C00060E284E491E00C941E1489EF97E0019798
:1024D000F1F70E941314109265211092642110925A
:1024E0006321E9E3F1E080818E7F808380818D7FAD
:1024F000808381E89BE10197F1F78081816080838F
:1025000023E040E06FE182E491E00E941E1489EF35
:1025100097E00197F1F780915D0180915E010E9443
:10252000281260E070E086E592E00E9489180E941F
:10253000B31181E090E008958091CE080895CF9383
:10254000DF931F92CDB7DEB789830E941211898174
:102550008093CE08282F40E06FE188E491E00F904F
:10256000DF91CF910C941E14FA0180936201909335
:10257000630160936001709361013097C1F08081C5
:1025800080936B01818180936A01828180936901CC
:102590008381809368018481809367018581809322
:1025A0006601868180936501878180936401089527
:1025B00086E592E00E94AA1881E08093602181E084
:1025C00090E008951F93CF93DF932091642112E848
:1025D000129F90011124D901AB59BE4D4C91442357
:1025E00009F443C047FD08C0433030F050E0EA0131
:1025F00022976C177D0710F41C9237C0B9016A59F5
:102600007E4D0E948B6BE09164211E9FF00111248E
:10261000EB59FE4DDF01A058BF4F8C9180935D2197
:1026200010821092642180916521882319F00E9404
:10263000D81202C0109260218091470180935E21E0
:1026400090915F21992311F0891710F480935F21F5
:1026500060915E2170E084E00E945E5860915D218F
:1026600070E083E00E945E5802C0C0E0D0E0CE017E
:10267000DF91CF911F9108950F931F93CF93DF9315
:102680001F92CDB7DEB78C01FC018081918100974C
:1026900009F18136954029F0F8011182108283E01A
:1026A0001FC06238E1F40E94F9578FB78983F8940C
:1026B0000E94A25760E870E00E94E21229812FBFB9
:1026C000181619063CF40E949D57E091A605F0915A
:1026D000A705199581E695E0F8019183808381E053
:1026E0000F90DF91CF911F910F9108950C94DD1001
:1026F0008091390181FD06C040E06FE085E491E002
:102700000C94141480E10895CF92DF92FF921F93EE
:10271000CF93DF931F92CDB7DEB7F82E80913901AA
:1027200081FD0DC00E94121189E10E94551186E0C1
:102730000E946958892BB9F4C12CD12C1DC081E0AD
:102740008093E721909139019D7F9093390120E199
:1027500037E28091E721882329F32150310921159F
:102760003105B9F7DFCF0E947813C82E86E00E94AA
:10277000695881500E94DD108FB78983F894909139
:102780003901926090933901909139019D7F909326
:10279000390162E06F0D8DE498E00E946314898135
:1027A0008FBF0E94121145E060EE82E491E00E942A
:1027B0001414182F86E00E946958892B19F08C2D6B
:1027C0000E94DD108091E821882319F00E94B31146
:1027D00002C00E943011123040F0133041F0153029
:1027E00041F0173039F411E005C010E003C012E0E9
:1027F00001C013E0812F90E00F90DF91CF911F91E6
:10280000FF90DF90CF900895CF93DF93EB010E946C
:10281000EC10009729F4CE01DF91CF910C94841332
:10282000DF91CF9108950895FC018081862390E087
:1028300002C0959587954A95E2F70895CF93DF9367
:102840001F92CDB7DEB73FB73983F894FC015081B2
:10285000362F30955323042E01C0220F0A94EAF735
:102860002623522B508389818FBF0F90DF91CF9108
:10287000089540917B012DEF240FFC012D3738F096
:102880001082E058FF4F10823196108208954193D4
:10289000A0E8B1E050E8540F9D012F5F3F4F6C91CD
:1028A0006193521711F0D901F7CF4150E42FF0E0B6
:1028B000E058FE4F2181FC01E058FF4F2083319604
:1028C00021E02083089560938001E1E8F1E0615800
:1028D0009F012F5F3F4FDC014D91CD014083621777
:1028E00011F0F901F5CF08951F920F920FB60F92D4
:1028F00011240BB60F922F933F934F935F936F93D7
:102900007F938F939F93AF93BF93EF93FF938091A8
:10291000470180935E218091632122E8829FC0015C
:1029200011248B599E4D0E943914109263210E94EC
:10293000D812FF91EF91BF91AF919F918F917F91AD
:102940006F915F914F913F912F910F900BBE0F9020
:102950000FBE0F901F9018951F920F920FB60F92F7
:1029600011240F900FBE0F901F9018951F920F9279
:102970000FB60F9211240F900FBE0F901F90189555
:102980001F920F920FB60F9211240F900FBE0F904F
:102990001F9018951F920F920FB60F92112410924C
:1029A000E7210F900FBE0F901F9018951F920F9266
:1029B0000FB60F921124109262210F900FBE0F904C
:1029C0001F9018951F920F920FB60F9211240F901F
:1029D0000FBE0F901F9018951F920F920FB60F9277
:1029E0001124109261210F900FBE0F901F90189527
:1029F000CF93DF93EC0189919991009729F060E0E2
:102A000070E00E948918F7CFDF91CF9108958091EF
:102A1000D1089091D208892B29F41092D0081092F5
:102A2000CF0808950E940A0FE091D108F091D208D2
:102A30002281338140815181240F351F281B390B9E
:102A40000480F581E02D309769F0428153816081E7
:102A50007181460F571F481B590B4217530780F7C8
:102A60009A01EECF280F391F3093D0082093CF085A
:102A7000089580E692E00C94AA18EF92FF920F93CB
:102A80001F93CF93DF938C01FC018081918100978C
:102A900099F089359105D9F0F8011182108283E00F
:102AA00068C0868197818417950709F049C0048022
:102AB000F581E02D3097A9F71092D2081092D10835
:102AC00089E590E0F8019183808381E052C0673806
:102AD00091F16238A9F7C091D108D091D208E12CC8
:102AE000F12C209769F3CE010E941219892BF1F085
:102AF000AE0168E88E819F810E945C18892BA1F449
:102B00001F821E828C819D81E114F10421F0F70166
:102B10009583848304C09093D2088093D1081D824A
:102B20001C820E940715D7CF0E9439157E010C80A8
:102B3000DD81C02DD6CFE091D108F091D208BACF77
:102B4000F093D208E093D108A481B581109709F4DD
:102B5000B7CF16968D919C9117978417950711F012
:102B6000FD01F2CF14968D919C91159795838483E6
:102B7000EBCFDF91CF911F910F91FF90EF900895D0
:102B8000CF93DF93EC010E9439158E819F813091A4
:102B9000D1082091D208892B91F0E32FF22F3097A2
:102BA00071F0EC17FD0739F4809182099091830947
:102BB0009783868310C00480F581E02DF0CF80914B
:102BC0008209909183099F838E833C832D83D093C8
:102BD000D208C093D108DF91CF910C940715CF9301
:102BE000DF93EC010E94F218CE01DF91CF910C949B
:102BF000C015CF93DF93EC010E94FE18CE01DF9148
:102C0000CF910C94C015CF93DF93EC010E9408196B
:102C1000CE01DF91CF910C94C01521E030E0FC0192
:102C200086819781892B11F020E030E0C901089559
:102C3000FC012281338180819181820F931F08954D
:102C400081E090E02091D1083091D208232B11F43B
:102C500080E090E00895CF93DF93EC01E091D108FC
:102C6000F091D2088E179F0769F48C819D81909313
:102C7000D2088093D1080DC0848195818C179D075F
:102C800021F0FC013097C1F706C08C819D819583AE
:102C900084830E9407151D821C821F821E82DF9181
:102CA000CF910895EF92FF920F931F93CF93DF93ED
:102CB0008C017A01FC0180819181009741F08A3476
:102CC000910501F1F8011182108283E048C084ED82
:102CD00098E00E942E19EC01209751F06C817D81C3
:102CE000CE0102960E94EF150990D881C02DF4CF35
:102CF00081E08093D3088AE490E0F8019183808397
:102D000081E02DC06838E1F784ED98E00E942E192B
:102D1000EC01209781F3CE010296E816F906D9F46A
:102D2000BE0184ED98E00E944219E0908209F09083
:102D300083098A859B859093830980938209EC851A
:102D4000FD85309719F08E859F851995F09283093E
:102D5000E0928209D0CF0990D881C02DDACFDF91DF
:102D6000CF911F910F91FF90EF9008951092D3088B
:102D700084ED98E00E942A1960E070E08AE692E013
:102D80000C9489180F931F93CF93DF93EC0100915C
:102D90008209109183091B870A875D874C873F87CB
:102DA0002E878091D308882379F08AE692E0909369
:102DB000830980938209CE0102960E94EF15109339
:102DC00083090093820902C07D836C83BE0184ED78
:102DD00098E0DF91CF911F910F910C945D190F93A3
:102DE0001F93CF93DF93EC018091D308882391F058
:102DF00000918209109183098AE692E090938309F9
:102E000080938209CE0102960E94F91510938309DE
:102E100000938209BE0184ED98E0DF91CF911F916C
:102E20000F910C945D19CF93DF93EC018091D3083F
:102E3000882329F0CE0102960E942B1604C01F821F
:102E40001E8219861886BE0184ED98E0DF91CF912D
:102E50000C9442191F93CF93DF93EC01162FEC8152
:102E6000FD813097D1F0909383098093820982E0AD
:102E70008887CE0106961995992787FD9095029728
:102E8000029710F0133839F4BE01CE01DF91CF91D3
:102E90001F910C94571781E08887DF91CF911F9184
:102EA0000895FC01208520FD0C942A170895CF92E7
:102EB000DF92EF92FF920F931F93CF93DF93EC017A
:102EC0006B01E0908209F0908309009184091091D0
:102ED0008509F801EC17FD0739F0309709F44AC06D
:102EE0000190F081E02DF6CF209709F443C088854A
:102EF000882309F118860115110561F0C017D10763
:102F000029F0AE0167E8C8010E945117F80100815D
:102F10001181F1CFEC81FD81309769F0CC15DD0591
:102F200051F0D0938309C093820940E050E063E8F8
:102F3000CE0106961995E0918409F0918509CE1786
:102F4000DF0769F4888199819093850980938409CA
:102F50000DC0808191818C179D0721F0FC01309775
:102F6000C1F704C08881998191838083F09283099D
:102F7000E0928209DF91CF911F910F91FF90EF9026
:102F8000DF90CF9008951F93CF93DF931092DE08C8
:102F9000C0918409D091850911E0209779F0898545
:102FA000882341F01887198640E050E062E8CE019E
:102FB0000E942A170990D881C02DEFCFDF91CF91C1
:102FC0001F9108958091810991E0980F9093810954
:102FD00008958AE88093810910927F0910928009F0
:102FE0001092850910928409109283091092820927
:102FF00008958091DE0881110E94C31770918009A5
:10300000772309F451C0E0917F092E2F30E085E04D
:10301000E89FF0011124E152F74F60816093DD08D1
:10302000418152815093DC084093DB088381948175
:103030009093DA088093D9082F5F3F4F2F71332781
:1030400020937F09715070938009009731F580912A
:103050008409909185099093D8088093D70880912E
:10306000D7089091D808892BF9F08091DE0881115A
:103070000E94C3174091DB085091DC086091DD0885
:103080008091D7089091D8080E945117E091D708F5
:10309000F091D80880819181DECF613819F421E068
:1030A000FC0120870E9451178091DE082091800941
:1030B00090E0820F911D0895209180092032B9F08F
:1030C000E0917F09E20FEF71E093D60835E0E39FCE
:1030D000F0011124E152F74F6083528341839483BE
:1030E00083832F5F2093800980E090E0089581E042
:1030F00090E00895CF93DF93C0918209D091830926
:103100000E945117D0938309C0938209DF91CF9118
:103110000895AB013091840920918509E32FF22FA6
:10312000E817F907B1F0309721F00190F081E02D18
:10313000F7CF009771F0FC013083218390938509CC
:103140008093840921E020871782168261E80C941D
:103150007A180895009749F0FC012085215022300B
:1031600020F421E021872093DE0808950C943C5D33
:103170000F931F93FC01CB01409186095091870961
:10318000338322831583048371836083F0938709DB
:10319000E0938609452B11F40E94565D80E090E093
:1031A0001F910F910895809186099091870900974A
:1031B000C1F01092870910928609DC0114966D9176
:1031C0007C9115971296ED91FC9113971995E091CA
:1031D0008609F0918709309721F0808191810C94C4
:1031E000565D0895CF93DF93EC017B836A830E9441
:1031F0000A0F99838883DF91CF910895FC01808124
:10320000918122813381820F931F9183808308955E
:10321000CF93DF93EC010E940A0F99838883DF919B
:10322000CF910895CF93DF93EC010E940A0F28817C
:103230003981821B930B9C012F5F3F4F81E090E00F
:103240004A815B814217530710F080E090E0DF91E4
:10325000CF910895FC01118210820895FC018081B4
:1032600091810895DC01ED91FC91309731F08081DE
:103270009181009729F0FC01FACF80E090E0089559
:10328000CF010895DC01ED91FC913097A9F0A0E009
:10329000B0E020813181E617F70741F4109709F477
:1032A000DC012D933C931182108208952115310584
:1032B00019F0DF01F901EDCF08950F931F93CF931C
:1032C000DF938C01EB010E94421919821882C80118
:1032D0000E943219009711F4F80101C0FC01D1835A
:1032E000C083DF91CF911F910F9108950F931F938A
:1032F000CF93DF93EC018B010E9442198881998161
:10330000F8019183808319830883DF91CF911F9106
:103310000F910895DC01ED91FC9180E090E03097F1
:1033200029F001960190F081E02DF9CF08950097E2
:1033300021F0FC0180819181089580E090E0089562
:10334000CF93DF93EC014A815B8160E070E08C8178
:103350009D810E94A66B2A813B8188819981289F4B
:10336000A001299F500D389F500D112460E070E09E
:103370008E819F81DF91CF910C94A66BFC0182819D
:10338000938120E030E028173907D1F0A481B5817E
:10339000A20FB31F4C91411110C081E08C9380812A
:1033A0009181289FA001299F500D389F500D112415
:1033B00086819781840F951F08952F5F3F4FE3CF3C
:1033C00080E090E00895FC0126813781428153819D
:1033D00080E090E084179507C9F02617370781F43D
:1033E000A481B581A80FB91F2C91121614F4215095
:1033F0002C930480F581E02DE80FF91F808108955A
:10340000A081B1812A0F3B1F0196E4CF8FEF089571
:10341000FC018681978168177907A0F0A081B181AE
:1034200042815381A49F9001A59F300DB49F300D20
:103430001124280F391F81E090E06217730720F0F4
:1034400080E0089580E090E00895DC0112964D91AF
:103450005C91139780E090E020E030E0241735077E
:1034600069F01496ED91FC911597E20FF31F6081BE
:10347000611101C001962F5F3F4FF0CF08958F92E9
:103480009F92AF92BF92CF92DF92EF92FF920F93F3
:103490001F93CF93DF93EC015A014901F701118289
:1034A0001082649F6001659FD00C1124C80ED91E44
:1034B00006950695069510E0CC15DD05B0F48881DB
:1034C000882369F0A801B401CE0101960E947E6BA9
:1034D000892B41F4F701D183C08380E00EC0F7014E
:1034E000D183C083CA0DDB1DE7CFF70180819181B5
:1034F000892B11F081E001C082E0DF91CF911F9113
:103500000F91FF90EF90DF90CF90BF90AF909F9082
:103510008F9008953F924F925F926F927F928F9219
:103520009F92AF92BF92CF92DF92EF92FF920F9352
:103530001F93CF93DF93EC01962E342E822E27011A
:10354000380188E8E82E89E0F82E062F9E014CE12C
:1035500050E064E08EE093E20E943F1A813009F56A
:10356000E0918809F09189098083A0918809B09140
:10357000890980E1FE01119601900D928A95E1F78B
:10358000E0918809F0918909918A328A838E438A71
:10359000548A658A768AA78AB08EC18ED28ECF0170
:1035A00002C080E090E0DF91CF911F910F91FF90DA
:1035B000EF90DF90CF90BF90AF909F908F907F90D3
:1035C0006F905F904F903F9008950F931F93CF930C
:1035D000DF938C018EE093E29093890980938809B0
:1035E000C0918809D091890983E2CE37D807A8F421
:1035F0008881882361F0498946954695469550E033
:10360000B801CE0101960E947E6B892B41F06C9629
:10361000D0938909C0938809E3CF80E001C081E09D
:10362000DF91CF911F910F910895EF92FF920F9329
:103630003CE8E32E39E0F32E00E89C014CE150E039
:1036400064E083E092E20E943F1A811105C08091FC
:103650008C0990918D0902C080E090E00F91FF905D
:10366000EF90089523E032E230938D0920938C0986
:10367000282F332727FD3095E0918C09F0918D0993
:1036800092E2E337F907B0F49081992369F08F3F14
:1036900029F0418950E04217530731F491819E3F50
:1036A00019F49281903849F07C96F0938D09E0935B
:1036B0008C09E2CF80E090E00895CF010895EF9269
:1036C000FF920F93CF93DF93EC014AE8E42E49E099
:1036D000F42E00E89C0141E150E066E086EA92E2C7
:1036E0000E943F1A8130A9F4E0918A09F0918B0978
:1036F0008083A0918A09B0918B0980E1FE01119627
:1037000001900D928A95E1F780918A0990918B0939
:1037100002C080E090E0DF91CF910F91FF90EF9099
:1037200008958F929F92AF92BF92EF92FF920F9364
:103730001F93CF93DF93EC014A015B01122F5CE8EA
:10374000E52E59E0F52E00E89C014CE150E064E0E4
:1037500083E092E20E943F1A813009F057C0E09165
:103760008C09F0918D098083A0918C09B0918D090D
:1037700090E1FE01119601900D929A95E1F7E0918A
:103780008C09F0918D09128B81149104A104B1046C
:1037900011F4838B07C0138AB501A401CF014496AD
:1037A0000E94E35DE0918C09F0918D0991E0918B8D
:1037B0008FEF80938E0922E020938F091092910958
:1037C0001092900910929309109292091092950903
:1037D00010929409109297091092960910929809E4
:1037E0009093990980939A098D8580939B098E8582
:1037F0009F8590939D0980939C098EE899E00E9493
:103800005F1B80918C0990918D0902C080E090E04F
:10381000DF91CF911F910F91FF90EF90BF90AF90EC
:103820009F908F900895009711F0FC0110820895E9
:10383000EF92FF920F936AE8E62E69E0F62E00E819
:103840009C0141E150E066E086EA92E20E943F1A64
:10385000811105C080918A0990918B0902C080E096
:1038600090E00F91FF90EF900895CF93DF93EC01DC
:10387000009799F18FEF80938E0992E090938F09D2
:103880001092910910929009109293091092920946
:103890001092950910929409109297091092960926
:1038A0001092980991E09093990980939A098E85D6
:1038B00080939B098F85988990939D0980939C099B
:1038C0008EE899E00E94181C90938B0980938A09D6
:1038D000009711F00E94131C1882DF91CF91089578
:1038E00083E092E290938D0980938C09E0918C099A
:1038F000F0918D0982E2E337F807C0F480818823D4
:1039000079F0838981110CC0CF0144960E94F35D48
:10391000892B31F080918C0990918D090E94351C82
:1039200080918C0990918D094C96DCCF0E94E1200A
:103930000E94382C8EE793E20C94F915DC0118965E
:1039400028E0FB0101900D922A95E1F7FC0120850A
:1039500032E0232720870895DC01FB0180E03D91C0
:10396000919128E0280F391304C0822F2038B9F72D
:103970000895932797FD04C08F5F990F8213FACFA4
:103980000895BF92CF92DF92EF92FF920F931F9311
:10399000CF93DF93EC016B01FB0180818E3F21F41B
:1039A0008181803819F431C08F3F79F183E092E250
:1039B00090938D0980938C09E12CF12CB12C00910E
:1039C0008C0910918D09F2E203371F0710F5F801F9
:1039D0008081882399F08189813081F481818E3FB3
:1039E00019F48281803851F0B8016F5F7F4FC601B2
:1039F0000E94AC1C8B1510F07801B82E045E1F4F8E
:103A000010938D0900938C09DACF81E00E94321B5C
:103A10007C01E114F10489F4198218821B821A8254
:103A20001D821C821F821E82198618861B861A869A
:103A30001D861C861F861E8608C080E1F701319610
:103A4000DE0101900D928A95E1F7DF91CF911F91F0
:103A50000F91FF90EF90DF90CF90BF900895CF929D
:103A6000DF92EF92FF92CF930E94AA10C82F0E947C
:103A7000AA10C090F621D090F721E090F821F090A4
:103A8000F92120E030E03C2F820F931FBC0180E041
:103A900090E0A70196010E94E46AF694E794D79417
:103AA000C7946C0D7D1D8E1D9F1DCF91FF90EF90D3
:103AB000DF90CF9008952F923F924F925F926F9236
:103AC0007F928F929F92AF92BF92CF92DF92EF92AE
:103AD000FF920F931F93CF93DF930E94852B0E9439
:103AE0007E1E80E7EEE0F3E2DF011D928A95E9F7A2
:103AF000E1EFF1E28BE191E0DF019C011D922150A9
:103B00003040E1F78CE180930D2382E180930C2318
:103B100080E095E0A0E0B0E080839183A283B3834E
:103B200080E48093F52180EC97E2A9E0B0E08093F7
:103B3000F6219093F721A093F821B093F9210E94E8
:103B40002F1D6093FA217093FB218093FC219093A9
:103B5000FD2180E197E2A0E0B0E08093FE21909308
:103B6000FF21A0930022B093012210920222AEE81E
:103B70004A2EA9E05A2E8EEF90E8D2018D939C93A5
:103B8000B0E96B2EB9E07B2EF30111821082C2E9FD
:103B90008C2EC9E09C2ED4011D921C92C4E9D9E060
:103BA00019821882A12CB12C6501E12CF12C87011E
:103BB00020E040E060E4C2010E948A1A6EE873E2ED
:103BC000C2010E949E1C21E040E050E0BA01C20107
:103BD0000E94911BAA24AA9412E0B12EF201B18294
:103BE000A082D3011D921C92F401118210821982CD
:103BF000188206E9C02E09E0D02ED6011D921C9233
:103C000088E9E82E89E0F82EF701118210820AE98E
:103C100019E0D8011D921C929CE9292E99E0392EB9
:103C200080E091E0F10191838083C2010E945F1BDB
:103C3000D201AD92BC92F30111821082D4011D9287
:103C40001C9219821882F60111821082D7011D92EE
:103C50001C92F8011182108280E092E0D1018D93D4
:103C60009C93C2010E945F1B6CE070E08EE793E2C0
:103C7000DF91CF911F910F91FF90EF90DF90CF9048
:103C8000BF90AF909F908F907F906F905F904F907C
:103C90003F902F900C94EF15CF92DF92EF92FF920E
:103CA0000F931F93CF93DF938C017B016A0180EA0E
:103CB00099E00E942E19EC010097B9F0023011052D
:103CC00028F48AED99E00E948A1904C080919E0927
:103CD00090919F09EA81FB819C01A601B701C8016F
:103CE0001995CE010E949719E6CFDF91CF911F91D0
:103CF0000F91FF90EF90DF90CF9008958CE792E0C6
:103D00000E94A01984E39CE00E942A1962E87FE1E6
:103D10008CE892E00E947A5584E792E00E94A01914
:103D20008AED99E00E942A1980EA99E00C942A19F8
:103D3000009749F0FC01628173818CE892E00E9457
:103D40001B570C94092C80E090E0089584E39CE0DC
:103D50000C942E19009711F00C94971980E090E0C4
:103D60000895CF92DF92EF92FF920F931F93CF931C
:103D7000DF938C010E94A61EEC01C12CD12CE12CFA
:103D80002097D9F0FC8CFC1498F04F2D4695469561
:103D9000469550E0BE016C5F7F4FC8010E947E6B6C
:103DA000892B31F480E8F81661F0CF2CDC2EED2E53
:103DB000CE010E94AA1EEC01E3CFCD2DDE2D20976F
:103DC00089F084E39CE00E942E19C817D90751F0AE
:103DD000BE0184E39CE00E944219BE0184E39CE0A2
:103DE0000E947619CE01DF91CF911F910F91FF9024
:103DF000EF90DF90CF9008950F931F93CF93DF93B1
:103E0000EC01009709F45AC08A819B81892B09F43F
:103E100055C0BE0184E39CE00E944219EA81FB8107
:103E2000828193810E942E198C01009751F0FC0130
:103E3000828193818C179D0741F0C8010E949719D8
:103E4000F3CFCE0104960E94303AEA81FB81B8019B
:103E5000828193810E944219EA81FB818281938150
:103E60000E942E19892B41F4EA81FB8162817381C2
:103E70008CE892E00E94EA56BE018CE792E00E9434
:103E8000E319B80184E892E00E94E31980919E0949
:103E900090919F09019790939F0980939E09CE016D
:103EA0000E94981EBE016C5F7F4FAC0183E090E0E2
:103EB000DF91CF911F910F910C944C1EDF91CF9108
:103EC0001F910F910895CF93DF93EC010097B9F004
:103ED0008A819B81009799F00E942E19009741F0EA
:103EE000FC01828193810E94FC1E8A819B81F4CF18
:103EF000BE018CE892E0DF91CF910C94EA56DF91FD
:103F0000CF9108950C94631F9F92AF92BF92CF926E
:103F1000DF92EF92FF920F931F93CF93DF936C0189
:103F2000962E5A01CA010E940B2C7C01009709F4BD
:103F300052C0C6010E94B11EEC01009781F00E94A0
:103F4000981E009749F040E150E0BC01C5010E9475
:103F50007E6B892B09F46EC0CE010E94FC1E8091FD
:103F60009E0990919F09449731F484E39CE00E945C
:103F700032190E94FC1EB7018CE892E00E94BB56E9
:103F80008C01009789F4B7018CE892E00E94DB5520
:103F90008C01009701F1DC0113969C938E9312978C
:103FA0001D921C920E942A198CE792E00E94BE1971
:103FB000EC01009781F0BC0184E39CE00E9476193B
:103FC00084E892E00E94BE19009741F4BE018CE79C
:103FD00092E00E94E31980E090E02DC0FC01D383C1
:103FE000C283BC01D80112968D919C9113970E94B7
:103FF0005D191B830A8380919E0990919F09019608
:1040000090939F0980939E0980E1F601DE0114964A
:1040100001900D928A95E1F79C8EFE01749688E0DE
:10402000DF011D928A95E9F7A501B60182E090E0D3
:104030000E944C1ECE01DF91CF911F910F91FF90F6
:10404000EF90DF90CF90BF90AF909F9008950F9327
:104050001F93CF93DF938C018AED99E00E942E1974
:10406000EC010097E9F0C017D107B1F4BE018AED69
:1040700099E00E944219BE0184E792E00E94E31990
:10408000BE016E5F7F4FAB0181E090E0DF91CF9189
:104090001F910F910C944C1ECE010E949719E0CFF6
:1040A000DF91CF911F910F9108950F931F93CF939D
:1040B000DF938C018AED99E00E942E19EC010097A4
:1040C00069F040E150E0B801CE0102960E947E6B9B
:1040D000892B39F0CE010E949719F0CF80E090E053
:1040E00001C0CE01DF91CF911F910F910895CF9222
:1040F000DF92EF92FF920F931F93CF93DF938C0188
:104100006A017B010E945520EC01009761F484E76D
:1041100092E00E94BE19EC01009721F1BC018AEDEA
:1041200099E00E94761980E1F801DE011296019073
:104130000D928A95E1F7C114D104E104F10441F034
:10414000B701A601CE0142960E94E35D1A8E02C01D
:1041500081E08A8FA801B80180E090E00E944C1EA7
:10416000CE0102C080E090E0DF91CF911F910F91CE
:10417000FF90EF90DF90CF9008950F931F93CF9310
:10418000DF938AED99E00E942E19EC0100E010E027
:10419000209789F08E010E5F1F4FC8010E94D72B18
:1041A000009721F0FC0182A1811105C0CE010E947F
:1041B0009719EC01EDCFC801DF91CF911F910F91BD
:1041C0000895CF93DF938AED99E00E942E19EC01B8
:1041D000009789F08A8D81110AC0CE0142960E9413
:1041E000F35D892B21F0CE010E942720ECCFCE0178
:1041F0000E949719ECCFDF91CF910895FB014150B8
:104200005109460F571FE417F50778F4208130E075
:10421000322F22276181260F311D820F931F8217B3
:10422000930708F401963296EECFE417F50751F4A0
:10423000208130E0322F2227820F931F82179307AD
:1042400008F4019608950F931F93CF93DF931F9265
:104250001F92CDB7DEB70091F50C20919A2330E084
:10426000322F222710E0201B310B90919B23290F26
:10427000311D3A83298329813A8140E250E06EE979
:1042800073E2F901E80FF11DCF010E94FE20498180
:104290005A81B80162547C4D0E94FE20009721F0A3
:1042A00098278927982702C08FEF9FEF0F900F90D4
:1042B000DF91CF911F910F9108952091F50C422F1E
:1042C00050E0485D5F4FFA01EA56FC4D618188E09D
:1042D000689FB0011124695F7F4FA2E08A2F90E0B0
:1042E000681779070CF44FC0FA01E80FF91FEA5676
:1042F000FC4D3081313009F442C018F0333619F0EA
:1043000018C0AF5FEBCFA093F40C0E94D83F892B6D
:1043100019F59091F40CE091F50CF0E0B896E90FE6
:10432000F11DEA56FC4D8181890F8E5F8093F40C5C
:104330002CC0307C303839F0303C41F03034F9F466
:10434000A093F40C09C0A093F40C08C0A093F40C43
:104350008091AE238F3F11F481E0089530E040E07A
:1043600050E0285D3F4F4F4F5F4F2A0F311D411DD9
:10437000511D62E084E00E941E6082E00895818108
:104380008E5FA80FABCFA093F40C80E00895FC01E2
:104390005381560F50938D23872F99274281480FC1
:1043A00040938C23A181A0938B23E081E0938A2307
:1043B000242F30E02817390748F481E08A0F8093D2
:1043C0008B23811103C0EF5FE0938A23852F90E058
:1043D00077278617970788F44F5F40938C23411106
:1043E0000CC080918B238F5F80938B23811105C03C
:1043F00080918A238F5F80938A23089520912924B6
:1044000030912A24BC01C90144960E94C721E09141
:104410002924F0912A2480918A23848B80918B23F4
:10442000858B80918C23868B80918D23878B08953B
:104430008AE30C94232186E00C94232181E10C94DF
:1044400023210E945B1D0E945C610E94EC3080E091
:10445000E82FF0E0EE0FFF1FE957FB4D11821082AD
:104460008F5F8430A8F380E09CE2989FF0011124D4
:10447000E55DFB4D15A28F5F8230B8F380E094E0DC
:104480009093F20C8093F10C80E099E1989FF001F9
:104490001124EF56FB4D118A108A8F5F8530B0F3DF
:1044A0008093F30C08950F931F93CF93DF93809124
:1044B000F50C882349F1C0918623D091872390E0A1
:1044C000BC01685D7F4FC617D70738F41092F50C12
:1044D000109287231092862317C0C81BD90B8E0118
:1044E000085211096A567C4DA8018EEB93E20E9496
:1044F000946BD0938723C093862310939A23C8523A
:10450000C0939B231092F50CDF91CF911F910F91D7
:10451000089540E04430A0F4E42FF0E051E0540F5F
:10452000EE0FFF1FE957FB4D208131812817390716
:1045300029F44093F30C118210820895452FEACF9D
:104540004093F30C089540E0443098F4E42FF0E0F9
:1045500051E0540FEE0FFF1FE957FB4D20813181D1
:10456000232B29F44093F30C918380830895452FE6
:10457000EBCF4093F30C0895BF92CF92DF92EF926E
:10458000FF920F931F93CF93DF93C0912924D09173
:104590002A24843009F47DC322ED33E230932824A9
:1045A000209327243093892320938823833061F438
:1045B0008DA18F70833009F070C08C8D9D8D892BFB
:1045C00011F00C942E2B83C0823009F084C010921D
:1045D0008723109286231092902410928F2480912A
:1045E000F00C8F5F8093F00C811113C08091EF0C61
:1045F0008F5F8093EF0C81110CC08091EE0C8F5F68
:104600008093EE0C811105C08091ED0C8F5F80933B
:10461000ED0C2DA1822F8D7F853051F48EA18F5FFF
:104620008EA3883711F00C942E2B1DA20C942E2BE8
:10463000222311F40C942E2B8C8D9D8D892B09F443
:1046400042C08EA19FEF980F9EA381110C942E2B38
:104650008FA1883031F09FEF920F923048F485306F
:1046600039F41DA280E8809322240E941A3FD2C60A
:10467000853038F493E0082E01C0990F0A94EAF7C8
:1046800001C090E39EA38F5F8FA3822F8F70833032
:10469000A1F048F4813009F4CFC4823009F0DEC7BC
:1046A0001092CB23CCC4863009F453C6883009F469
:1046B00050C6843009F0D2C74CC684E080932224CF
:1046C0000E941A3FD9C62F70233009F0C7C788E06F
:1046D0008093222494C6853019F5E0912524F09129
:1046E000262480899189892B09F4B8C710922A243D
:1046F0001092292486EC93E2909328248093272417
:1047000090938923809388231092902410928F2471
:10471000109287231092862388E080932224B7C2C8
:1047200080919623807F803609F098C780919A23E4
:1047300090E0982F882720919B23820F911D209134
:104740008623309187232817390708F487C788966E
:10475000909387238093862380919E238F3F09F433
:104760007DC78CE993E290932424809323241092B4
:10477000F50C1092F60C80919C2381111FC081E0F2
:104780008093F60C0E945D21813009F467C720F008
:10479000823009F46BC712C08091F50CE82FF0E06D
:1047A000E254FC4DF0932424E0932324885F91810C
:1047B00028E0929F800D11248093F50C8EEA93E2FD
:1047C0000E94151B892B09F03DC18EEA93E20E94DD
:1047D000181C892B09F036C12091AE2330919E23FD
:1047E0002F3F09F496C02E3F29F48091AF238038E3
:1047F00009F48FC03E3F29F480919F23803809F44B
:104800008BC080919E2390919F23892B59F5809195
:10481000A0239091A123892B29F58091A223909127
:10482000A323892BF9F48091A4239091A523892BAC
:10483000C9F48091A6239091A723892B99F48091A4
:10484000A8239091A923892B69F48091AA239091A0
:10485000AB23892B39F48091AC239091AD23892B24
:1048600009F457C08091AE239091AF23892B61F555
:104870008091B0239091B123892B31F58091B2239F
:104880009091B323892B01F58091B4239091B523A6
:10489000892BD1F48091B6239091B723892BA1F471
:1048A0008091B8239091B923892B71F48091BA2318
:1048B0009091BB23892B41F48091BC23811104C0CA
:1048C0008091BD23813029F18091862390918723A7
:1048D0008130954038F020E035E040E050E060E085
:1048E00082E009C080919D23823040F420E030E0D6
:1048F000A90160E083E00E941E60B8C60E943B40B0
:10490000892B09F0ABC680919D23815080939D2314
:10491000ADC63E3F09F0A2C680919F23803809F0C2
:104920009DC680919E2390919F23892B59F580915C
:10493000A0239091A123892B29F58091A223909106
:10494000A323892BF9F48091A4239091A523892B8B
:10495000C9F48091A6239091A723892B99F4809183
:10496000A8239091A923892B69F48091AA2390917F
:10497000AB23892B39F48091AC239091AD23892B03
:1049800009F46CC68091AE239091AF23892B69F511
:104990008091B0239091B123892B39F58091B22376
:1049A0009091B323892B09F58091B4239091B5237D
:1049B000892BD9F48091B6239091B723892BA9F440
:1049C0008091B8239091B923892B79F48091BA23EF
:1049D0009091BB23892B49F48091BC23811105C0A0
:1049E0008091BD23813009F439C62F3F09F436C6C2
:1049F0008EEA93E20E94E51A811130C620E030E091
:104A0000A90162E081E077CF8C3220F18A3309F48A
:104A10008FC048F18B3309F421C68C3309F07EC076
:104A20008091F60C81FF41C086FD78C08064809340
:104A3000F60C0E945D21813009F410C6C0F182306D
:104A400009F414C6E0912324F091242480818B3250
:104A5000D9F63EC0863009F473C1813109F48CC0A7
:104A600081115CC004C08C3209F4F8C557C0809134
:104A7000F60C80FD53C081608093F60C0E945D218E
:104A8000813009F4EBC5D8F68091F50CE82FF0E001
:104A9000E254FC4DF0932424E0932324885F918119
:104AA000F8E09F9F800D112436C08260C0CF8091B6
:104AB000F50CE82FF0E0E254FC4DF0932424E09351
:104AC0002324885F918128E0929F800D112423C0C8
:104AD0008091F60C82FD22C084608093F60C809158
:104AE000F50C282F30E0F901E254FC4D9381992315
:104AF00041F0265D3F4F442737FD4095542F60E03D
:104B000015C0F0932424E0932324885F9181E8E08A
:104B10009E9F800D11248093F50C94CF9F01265900
:104B20003342442737FD4095542F61E084E0E3CEC3
:104B30000E941822019609F091C5E091F50CF0E071
:104B4000E254FC4D80810E948F3CE091F50CF0E036
:104B5000E254FC4D618180810E94F25F813021F43A
:104B60001092872310928623809186239091872329
:104B7000892B09F473C57AC50E945322809186233C
:104B800090918723C097909387238093862386EC08
:104B900093E290932824809327248091C4239091BA
:104BA000C523892B99F40091C0231091C1230115CD
:104BB000110509F453C581E994E29093262480936A
:104BC0002524E090BE23F090BF230FC00E941E2238
:104BD000019609F043C5E7CF88899989009771F458
:104BE0006996D0932624C0932524C0912524D09182
:104BF000262485E2CE30D80778F330C50817190788
:104C000079F78A899B89009719F0E816F90641F728
:104C100088819981892BE1F48A819B81892BC1F458
:104C20008C819D81892BA1F48E819F81892B81F4B8
:104C300088859985892B61F48A859B85892B41F428
:104C40008C859D85892B21F48E859F85892B51F03C
:104C500040E150E0BE018EE993E20E947E6B892B19
:104C600009F0BECF10922A241092292482E080936A
:104C7000222486EC93E29093282480932724909317
:104C80008923809388231092902410928F240E946D
:104C90001A3F80918F2490919024009709F4DEC4EC
:104CA0009C01205D3F4F30938723209386230896F5
:104CB00090939A23285220939B23E0912524F091EE
:104CC0002624248920939D2321E120939C23982747
:104CD000892798279093C3238093C2231092C523DA
:104CE0001092C423808991899093BF238093BE231F
:104CF000828993899093C1238093C02380E1AEEA97
:104D0000B3E201900D928A95E1F76EEA73E28EE9C3
:104D100093E20E94C11C82ED93E290932824809339
:104D200027240E941E2280959095009711F48FEF02
:104D30009FEF9093C5238093C4230E949B4184C41A
:104D40000E9453220E941B22019609F087C4009101
:104D5000C0231091C1230115110509F47FC4C0902F
:104D6000BE23D090BF23C114D10409F477C4D0E589
:104D7000ED2ED4E2FD2ECBE2D4E2F701B080BB20D1
:104D8000A1F0888999890817190779F48A899B897C
:104D9000C816D90651F440E150E0BE018EE993E215
:104DA0000E947E6B892B09F462C1AC96FCE2EF0E87
:104DB000F11C24E2C338D20701F78091CB238F7313
:104DC0008230E1F41093EB0C0093EA0C20E02430E5
:104DD00098F4E22FF0E0EE0FFF1FE957FB4D8081C2
:104DE00091812F5F0817190791F71092F30C20E0BB
:104DF000C0E0D0E03CE26DC02093F30C8091CB2367
:104E000082FD2CC484E18093CB238CE390E09093CB
:104E100087238093862380E58093CA238091C523CE
:104E20009091C9239093C5233091C4239091C823B6
:104E30009093C4233093C8232091C3239091C72318
:104E40009093C3232093C7239091C2239093F30C94
:104E50004091C6234093C2239093C6238F5F8093D3
:104E6000C92381110FC081E0830F8093C823811172
:104E700009C081E0820F8093C723811103C09F5F27
:104E80009093C6238091BE239091BF239093EB0C07
:104E90008093EA0C2091C0233091C1233093BF232B
:104EA0002093BE239093C1238093C02380E1EEE939
:104EB000F3E2AEEAB3E201900D928A95E1F76EEA71
:104EC00073E28EE993E20E94C11C9BC3473099F0C4
:104ED0002F5F2230F0F4822F90E0389FF001399F4D
:104EE000F00D1124E55DFB4D45A14111EFCF20935D
:104EF000F30CEF0110C0209721F056A14EA14517E9
:104F000038F7389FE001399FD00D1124C55DDB4D86
:104F1000DFCF2093F30C209709F4A0C3D0932A2469
:104F2000C093292483E08EA38CA31AA284E08BA3D0
:104F30001FA28091C0239091C123998B888B80916F
:104F4000BE239091BF239B8B8A8B80E1EEE9F3E235
:104F5000DE0101900D928A95E1F781E08DA38091A9
:104F6000ED0C888F8091EE0C898F8091EF0C8A8FE9
:104F70008091F00C8B8F81E090E09D8F8C8F8091E1
:104F8000C5238F8B8091C4238E8B8091C3238D8BFF
:104F90008091C2238C8B81E090E00E94FE21809161
:104FA000CA23282F207F30E0213531050CF444C07E
:104FB00082958F7090E00597880F991F880F991F31
:104FC0003091EC0C20E0E22FF0E0E817F90784F5CF
:104FD000EA56FC4D34AD311105C02093F30C10920C
:104FE000EC0C2AC0313011F42F5FEDCF3230D9F400
:104FF00045AD4430C1F42093F30C3093EC0C86ADF6
:1050000090E0982F882727AD822B9093EB0C80930C
:10501000EA0C8135910510F080E590E09F8F8E8F2E
:1050200099A388A309C045AD442311F0240FCBCF29
:105030002093F30C3093EC0C80E18093CB23809190
:10504000CB2382608093CB2382E08093D22384E0C1
:105050008093D3231092D42380E58093D52380E4DA
:1050600090E0909387238093862380E689C2D09333
:105070002A24C0932924109222242091CB2322FF9A
:1050800003C01DA280E225C23091CA2332953F7031
:10509000330F330F3093F30C809186239091872345
:1050A0008897831B910990938723809386233B2DB8
:1050B0003F70323029F4422F4F73423139F428C007
:1050C000313021F4422F4F73423011F1892B19F402
:1050D000822F8370E9F09091C2238C8998130FC0BE
:1050E0009091C3238D8998130AC09091C4238E890F
:1050F000981305C09091C5238F89981749F021FF17
:1051000035C2313009F498CF323009F02FC297CF31
:1051100024FF4AC06C8D7D8D6115710509F444C072
:10512000CE0148960E94C7213091C62380918A23E0
:1051300038133AC02091C72380918B23281334C0A1
:105140009091C82380918C2398132EC08091C923FD
:1051500040918D23841328C0388F298F9A8F8B8F8D
:105160008FA181111AC02AA18CA19EA1891B922F07
:10517000969596959695891B280F2AA387FD81956C
:105180009BA1392F36953695931B980F9BA3822FA1
:10519000869586958695890F8CA381E0809322243D
:1051A0008CA18EA31D8E1C8E4DA1842F8F7090E03C
:1051B000FC013197E830F10508F050C2E656FF4F88
:1051C0000C94066B8091222480FF14C083E08DA391
:1051D00080E4809322241D8E1C8E809186239091E2
:1051E0008723009709F407C122E4209322240E9418
:1051F000FE2101C18091CB238F73823009F02EC232
:105200001BCF8091222480FF6FC08091CB238F73AE
:10521000823109F069C08091CA23282F207F30E0B5
:10522000213531050CF444C082958F7090E00597CC
:10523000880F991F880F991F3091EC0C20E0E22F06
:10524000F0E0E817F90784F5EA56FC4D34AD31116A
:1052500005C02093F30C1092EC0C2AC0313011F4ED
:105260002F5FEDCF3230D9F445AD4430C1F42093F7
:10527000F30C3093EC0C86AD90E0982F882727AD87
:10528000822B9093EB0C8093EA0C8135910510F002
:1052900080E590E09F8F8E8F99A388A309C045ADCC
:1052A000442311F0240FCBCF2093F30C3093EC0C5C
:1052B00083E08DA38091C2238C8B8091C3238D8B3F
:1052C0008091C4238E8B8091C5238F8B81E090E0E9
:1052D0000E94FE2182E4809322241D8E1C8E109257
:1052E00087231092862387C080E2809322240E9425
:1052F0001A3FE0912924F0912A2415A27FCD8091B4
:10530000CB2380FF28C044FD26C08C8D9D8D892B2A
:1053100009F0A4C1809186239091872301960E9471
:10532000FE2120912224822F80618093222480916B
:10533000862390918723892B19F0226120932224C0
:105340000E941A3F81E090E09D8F8C8F88E08DA3B2
:105350001FA281E10CC185FF1CC08091D02390E089
:10536000982F88272091D123822B209127243091B8
:105370002824280F391F3093282420932724209194
:10538000862330918723281B390B30938723209362
:1053900086238091862390918723009749F044FDCE
:1053A00007C0209122242260209322240E94FE2103
:1053B0008091CC2390E0982F88272091CD23820FD5
:1053C000911D9093EB0C8093EA0C28A139A128172A
:1053D000390710F0892B21F43093EB0C2093EA0C61
:1053E0008091EA0C9091EB0C9F8F8E8F80912224FC
:1053F000837009F433C11092902410928F240E947C
:105400001A3F8091222485FF07C0109290241092A9
:105410008F241DA284E1ABC084FF0AC010929024A7
:1054200010928F2481E090E09D8F8C8F84E08FCF4D
:1054300020918F243091902421153105E1F080FFD7
:1054400002C01D8E1C8E8C8D9D8D009781F48E8DDB
:105450009F8D8217930720F49093902480938F243C
:1054600080918F24909190249D8F8C8F04C0909375
:10547000902480938F241FA2809188239091892368
:10548000909328248093272480918F2490919024B6
:10549000892B59F08C8D9D8D009739F0CC96909387
:1054A00087238093862388E10BC08091222481FF8B
:1054B000D5C08CE390E0909387238093862380E18E
:1054C0008093CB235CC08091222480FFC7C01DA2A3
:1054D00080E1809322240E941A3FC0C080918623DD
:1054E00090918723009711F00E94FE219091CB2389
:1054F0008091222490FF0BC080FF06C087E08DA31F
:105500001EA21D8E1C8E19C086E08DA316C080FFC2
:105510001EC085E08DA31D8E1C8EA0C080918623A9
:1055200090918723009711F00E94FE218091CB2358
:1055300080FF0DC087E08DA31EA281E090E00E9455
:10554000FE2180E1809322240E941A3F0FC08091A7
:10555000862390918723892B49F480C0809122244F
:1055600080FF7CC087E08DA31EA278C080E180937D
:10557000CB238CE390E0909387238093862380E570
:105580008093CA238C898093C6238D898093C723F7
:105590008E898093C8238F898093C923888D8093B7
:1055A000C223898D8093C3238A8D8093C4238B8DDE
:1055B0008093C523888999899093BF238093BE23C4
:1055C0008A899B899093C1238093C02380E1FE0147
:1055D000AEEAB3E201900D928A95E1F76EEA73E2CA
:1055E0008EE993E20E94C11C8DA184FF05C0109238
:1055F000CD231092CC2305C01092CC238CE3809352
:10560000CD2386E080939C238091F52180939D2378
:1056100080918623909187239C01285231093093F1
:105620009A23885280939B231092D1231092D023E7
:105630001092CF231092CE230E941B22809590952A
:105640009093CF238093CE2380E68093962310926D
:105650009723109299231092982308C010928723C1
:10566000109286231092F50C1092F60C10922224C0
:10567000DF91CF911F910F91FF90EF90DF90CF902E
:10568000BF9008950E940C6B0895FC0180918823BF
:1056900090918923009751F022E234E2281B390BC4
:1056A000AB012617370744F4A90106C0AB016135E9
:1056B000710514F040E550E01416150674F450938B
:1056C000902440938F24E817F90739F0BF01009721
:1056D00011F482ED93E20C948B6B0895CF93DF93DA
:1056E000EC01009779F085960E94E43ACE010E9481
:1056F000D242BE018091940290919502DF91CF91A8
:105700000C94EA56DF91CF9108956EE67BE280918A
:105710009402909195020C947A55EF92FF920F9318
:105720001F93CF93DF931F921F92CDB7DEB78C01EB
:1057300080919402909195022A8349830E94DB55BF
:105740007C012A814981009709F180E1F801D701A4
:1057500001900D928A95E1F7F70141A322A3C701B9
:1057600085960E94B13A40E050E0BA01C7014096E8
:105770000E94E35D40E050E0BA01C70148960E94F4
:10578000E35DF70110A2C7010E94D242C7010F904A
:105790000F90DF91CF911F910F91FF90EF9008959F
:1057A000BC0180919402909195020C941B570F9329
:1057B0001F93CF93DF938C01809194029091950277
:1057C0000E94B955EC010115110599F480E090E0B3
:1057D00014C040E150E0B801CE010E947E6B892BDD
:1057E00059F0BE0180919402909195020E949A55C1
:1057F000EC01209771F7EACFCE01DF91CF911F9195
:105800000F910895BC0180919402909195020C949F
:10581000BB560C94022C0E94D72B009711F00C94CD
:10582000D02B80E090E00895EF92FF920F931F93AA
:10583000CF93DF938C017B0180E10E947D58EC01C6
:105840006BE875E00E949258892B59F4A701B801C2
:10585000CE01DF91CF911F910F91FF90EF900C94AB
:105860007642DF91CF911F910F91FF90EF900895B5
:105870009F92AF92BF92CF92DF92EF92FF920F93DF
:105880001F93CF93DF9380919402909195020E9491
:10589000B955EC0182E0B82E93E0A92E28EEC22E75
:1058A00023E0D22EE12CF12C34E0932E209709F442
:1058B00090C08AA1813039F000F18330C1F1843089
:1058C00009F444C07DC08E01005F1F4FC8010E94D3
:1058D000F35D892B09F474C0CE010E945520892BF9
:1058E00051F0AAA245E050E060E070E0C8010E94DB
:1058F000E35D18A265C0BAA263C088A18330A0F599
:105900008E01085E1F4FC8010E94F35D892B09F4C8
:1059100057C08091862390918723892B09F050C02E
:1059200088A18F5F88A3AE0160E070E034C0CE0133
:1059300040960E94F35D892B09F442C09AA218A2F6
:1059400040E050E0BA01CE01489638C088A18330CB
:1059500078F0CE010E945520009731F0FC01228D95
:10596000211102C00E942720CE010E946E2B28C068
:105970008E01085E1F4FC8010E94F35D892B01F163
:105980008091862390918723892BD1F488A18F5F02
:1059900088A3AE01BE0180E090E00E94EC2F6091F0
:1059A000FE217091FF218091002290910122A70198
:1059B00096010E94E46ABA01A901C8010E94E35D50
:1059C000BE0180919402909195020E949A55EC013B
:1059D0006DCFDF91CF911F910F91FF90EF90DF90EE
:1059E000CF90BF90AF909F900895BF92CF92DF92DB
:1059F000EF92FF920F931F93CF93DF932091F50CBB
:105A000030E0C9018C96DC01AA56BC4D0C91409146
:105A10009D234F3F09F01EC1F901E254FC4D218145
:105A2000211118C114962C9114972F3F09F412C11B
:105A3000202F2074B22E06FF05C02091AE232F3FE9
:105A400009F408C1209186233091872344E160E066
:105A500050E0FC01E40FF11DE217F30780F4EA5671
:105A6000FC4D7181772309F4EFC0C081C23011F47D
:105A70006E2F5F2FE8E07E9F400D1124EACF6093E8
:105A8000091050930A1040930B10CD0104960E9408
:105A9000151B9093041080930310892B09F0DAC032
:105AA0008091F50C90E08A539C4D0E94D72B9093E7
:105AB0000810809307100E94D02B6C01C091071032
:105AC000D0910810209709F4C5C0E0900910F0901B
:105AD0000A10E114F10441F048E050E0BC01C701B4
