:100000000C949E020C94BF020C94BF020C94BF028D
:100010000C94BF020C94390F0C94BF020C94C00FC7
:100020000C94BF020C94BF020C94BF020C94BF024C
:100030000C94BF020C944F610C94BF020C94BF024D
:100040000C94BF020C94BF020C94BF020C94BF022C
:100050000C94BF020C9474100C94BF020C94BF0259
:100060000C94BF020C94C4100C94BF020C94BF02F9
:100070000C94BF020C94BF020C94BF020C94BF02FC
:100080000C94BF020C94BF020C94BF020C94BF02EC
:100090000C94F3100C94BF020C94BF020C94BF029A
:1000A0000C94BF020C94BF020C94BF020C94BF02CC
:1000B0000C94BF020C94BF020C94BF020C94846099
:1000C0000C94BF020C94BF020C94BF020C94BF02AC
:1000D0000C94BF020C94BF020C94BF020C94BF029C
:1000E0000C94BF020C94B5150C94BF150C94AB1571
:1000F0000C9473150C94EB150C94E1150C94D51518
:100100000C94C9150C94BF020C94BF020C94BF024E
:100110000C94BF020C94BF020C94BF020C94BF025B
:100120000C94BF020C94BF020C94BF020C94BF024B
:100130000C94BF02E129002A7E2A6D2B8D2BAD2B5A
:10014000B52B622B0C94665C0C9417550C94D3124F
:100150000C94F3310C9430550C94BF110C94B54BA6
:100160000C94B9110C9481200C9464130C94AD2B55
:100170000C943B2F0C94E0500C94E8520C94195CB6
:100180000C94A45E0C94C1020C946D2C0C94002A67
:100190000C944E600C9460060C9408550C940E510F
:1001A0000C94920F0C94070F0C94EC520C945B0D72
:1001B0000C947F560C94E1500C946D2B0C940D55BF
:1001C0000C94780C0C94E1290C9458600C948314D2
:1001D0000C9451600C94654B0C9465510C949F03E6
:1001E0000C9403650C9451170C944F4C0C94160707
:1001F0000C94AD440C94B3320C9470060C94FE64D1
:100200000C9468370C947B5C0C947E2A0C940F5EE3
:100210000C9403150C944C600C9416620C94EA0E2A
:100220000C94BC110C9454110C94B3110C94F60E54
:100230000C94DE360C94F42D0C9472680C94D85106
:100240000C94FE540C941C5C0C94C3620C94B61178
:100250000C946F050C948D2B0C9478690C94B52B31
:100260000C944B570C9456600C94E1130C94740E40
:100270000C94EB110C94622B0C94810F0C943B1496
:100280000C94E4500C9485510C94C95E0C943C166B
:100290000C941E560C94750F0C94300D0C94D44C89
:1002A0000C9403550C941A120C942F3B0C94D85CAC
:1002B0000C94DC120C94FC3E0C945F5C0C94431286
:1002C0000A00200053657276657220495076362008
:1002D0006164647265737365733A0A00476F7420D2
:1002E00072657175657374206D65737361676520E0
:1002F0006F6620747970652025630A000A005365D3
:100300007474696E67207072656669782000476F43
:100310007420636F6E66696775726174696F6E20B1
:100320006D657373616765206F66207479706520F1
:1003300025630A000A00206473743D00736C6970C1
:100340002D6272696467653A2044657374696E61F1
:1003500074696F6E206F66662D6C696E6B206275B6
:1003600074206E6F20726F757465207372633D0028
:100370002578003A003A3A004E657665722D75731D
:10038000656420737461636B203E2025642062796C
:100390007465730A000A2D2D2D2D2D2D2D2D2D0A5E
:1003A0000020203C6E6F6E653E002920256C757321
:1003B0000A002F2575202876696120000A526F7582
:1003C000746573205B2575206D61785D0A000A00F5
:1003D0000A4E65696768626F7273205B2575206DD0
:1003E00061785D0A000A000A41646472657373658E
:1003F00073205B2575206D61785D0A002575730A91
:10040000004F6E6C696E650A00526F7574696E6795
:1004100020456E61626C65640A0052504C20456E46
:1004200061626C65640A0025732025732C20636863
:10043000616E6E656C202575202C20636865636B8A
:10044000207261746520257520487A2074782070A8
:100450006F7765722025750A004555492D36342081
:100460004D41433A2025782D25782D25782D257866
:100470002D25782D25782D25782D25780A00506199
:100480006E69643A25780A0052616E646F6D20458A
:100490005549363420616464726573732067656EF4
:1004A0006572617465640A000A2A2A2A2A2A2A2A9D
:1004B000426F6F74696E672025732A2A2A2A2A2AB6
:1004C0002A0A0047656E65726174696E6720726101
:1004D0006E646F6D204555493634204D41430A0006
:1004E000454550524F4D20697320636F727275708D
:1004F000742C20726577726974696E6720776974ED
:10050000682064656661756C74732E0A006C6F6395
:10051000616C686F73740041544D45474132353604
:1005200072667232002578003A003A3A00284E5539
:100530004C4C2049502061646472290011241FBE74
:10054000CFEFD1E8DEBFCDBF00E00CBF16E0A0E0EA
:10055000B2E0E2E8F0EE00E00BBF02C007900D92BF
:10056000AC33B107D9F726E2ACE3B6E001C01D9287
:10057000AE39B207E1F70E94A30A0C943F700C94C5
:100580000000CF93DF93EC01CA0128813981211546
:10059000310539F02436310561F01982188283E083
:1005A0000FC00E94030984E690E09983888381E06C
:1005B00007C0209190256213FACF0E947D08F3CFE7
:1005C000DF91CF9108952F923F924F925F926F9259
:1005D0007F928F929F92AF92BF92CF92DF92EF92D3
:1005E000FF920F931F93CF93DF934C01C0E0D0E0B5
:1005F00000E010E09DE2292E93E0392EE12CFF244B
:10060000F3943BE2C32E33E0D32E4AE2A42E43E020
:10061000B42EF401E00FF11F6080712C762C66245B
:100620008181680E711C6114710439F5D7FD28C0F1
:10063000209711F021966AC0C0914806D0914906D2
:10064000BF92AF92C7018C1B9D0B9F938F93CE01DE
:10065000865B994F9F938F930E94F46C8C0F9D1F24
:1006600090934906809348060F900F900F900F903B
:100670000F900F90C1E0D0E049C01C161D0614F188
:100680000115110509F14090480650904906DF9286
:10069000CF92C701841995099F938F93C201865BFE
:1006A000994F9F938F930E94F46C840D951D9093A6
:1006B0004906809348060F900F900F900F900F906F
:1006C0000F9002C0CFEFDFEF4090480650904906F0
:1006D0007F926F923F922F92C701841995099F9341
:1006E0008F93C201865B994F9F938F930E94F46C06
:1006F000840D951D90934906809348068DB79EB74B
:1007000008960FB6F8949EBF0FBE8DBF0E5F1F4FA9
:100710000031110509F07DCFDF91CF911F910F912D
:10072000FF90EF90DF90CF90BF90AF909F908F9011
:100730007F906F905F904F903F902F900895EF9231
:10074000FF920F931F93CF93DF93EC01898D9A8DC6
:10075000873D910509F4BAC078F48F399105D9F035
:10076000813D910509F475C0892B09F098C18FE985
:1007700090E09A8F898F0FC0813121E0920709F4B0
:100780006CC18231A1E09A0709F47EC18E3F9105C8
:1007900009F085C11FC143E350E060E373E0CE017F
:1007A00049960E941C3C823014F480E07BC164E6D0
:1007B00073E08AE496E00E94AC6C8EE090E0909347
:1007C00049068093480680919402909195020E9478
:1007D0002F590AC060913E0670913F0680919402A5
:1007E000909195020E94105990933F0680933E0687
:1007F00080913E0690913F06009709F442C00E9406
:10080000E30200914806109149068CEA93E09F9319
:100810008F9320E031E0201B310B3F932F93C801D1
:10082000865B994F9F938F930E94F46C800F911F6A
:1008300090934906809348060F900F900F900F9069
:100840000F900F90843D910528F281ED90E09A8FF2
:10085000898FEAE4F6E0DF010D900020E9F7AD01B1
:10086000415051094A545640BF01CE0149960E9459
:100870001C3C82300CF499CF109249061092480625
:10088000A9CF009148061091490683E793E09F9312
:100890008F9320E031E0201B310B3F932F93C80151
:1008A000865B994F9F938F930E94F46C800F911FEA
:1008B000909349068093480687ED90E09A8F898F40
:1008C0000F900F900F900F900F900F90EAE4F6E0CA
:1008D000DF010D900020E9F7AD01415051094A5464
:1008E0005640BF01CE0149960E941C3C82300CF458
:1008F0005CCF10924906109248060E94A51F909363
:100900003D0680933C0680913C0690913D06009701
:1009100009F47EC004960E94E302009148061091FB
:100920004906E0913C06F0913D06848D1F928F931D
:1009300085E893E09F938F93E12CFF24F394C70104
:10094000801B910B9F938F93C801865B994F9F9358
:100950008F930E94F46C800F911F909349068093AF
:10096000480680913C0690913D060E94971F0E9488
:10097000E3020091480610914906E0913C06F0918F
:100980003D0687898F9386898F9385898F93848984
:100990008F938FE893E09F938F93E01AF10AFF9271
:1009A000EF92C801865B994F9F938F930E94F46CDE
:1009B000800F911F90934906809348068EEF90E038
:1009C0009A8F898F8DB79EB742960FB6F8949EBFC7
:1009D0000FBE8DBFEAE4F6E0DF010D900020E9F7DD
:1009E000AD01415051094A545640BF01CE014996CC
:1009F0000E941C3C82300CF4D8CE10924906109212
:100A0000480680913C0690913D060E94A91F77CF31
:100A1000009148061091490687E993E09F938F93D0
:100A200020E031E0201B310B3F932F93C801865B00
:100A3000994F9F938F930E94F46C800F911F909316
:100A400049068093480681E191E09A8F898F0F9043
:100A50000F900F900F900F900F90EAE4F6E0DF01F7
:100A60000D900020E9F7AD01415051094A5456401C
:100A7000BF01CE0149960E941C3C82300CF495CEF9
:100A800082E191E09A8F898F4FE050E06EE973E048
:100A9000CE0149960E941C3C82300CF486CE1A8E00
:100AA000198E83E0DF91CF911F910F91FF90EF900E
:100AB00008958FE993E008958FE38093102480E5F3
:100AC0008093112482E090E090930124809300248D
:100AD0000E943D0E10920124109200240895CF929E
:100AE000DF92EF92FF920F931F93CF93DF938C01CE
:100AF000FC01808191818F35F1E09F0731F1D8F4BD
:100B0000892B09F040C084E00E94AB1110924A0783
:100B1000E0910006F091010680E090E0199540E038
:100B200050E065E88091FC099091FD090E945B19F5
:100B30008FE591E024C08037E1E09E0709F461C0B1
:100B40008D37914009F466C01EC0653809F060C059
:100B5000E0916505F091660561E070E081E890E064
:100B6000199580914A07811113C060E870E080E414
:100B700096E00E94EE160E945C0580E791E0F80185
:100B80009183808345C0F8011182108283E04DC0BB
:100B9000E0910006F091010681E090E0199584EC67
:100BA00092E09F938F930E94D06CCEE8D2E20F9098
:100BB0000F9062ECC62E62E0D62E70ECE72E72E04B
:100BC000F72E8881FE0171979081992391F08230F0
:100BD00080F4DF92CF920E94D06CCE0140970E94A9
:100BE000A93BFF92EF920E94D06C0F900F900F9054
:100BF0000F906C96F2E2CE3FDF0719F78DE791E098
:100C0000BECF80E496E00E940C17892B09F0A9CF93
:100C100081E00BC08091C9216813F0CF4156554047
:100C200069F78EE10E944745E9CFDF91CF911F918F
:100C30000F91FF90EF90DF90CF900895CF93DF93C7
:100C4000CDB7DEB760970FB6F894DEBF0FBECDBF4D
:100C500020E1FC01ABE4B7E001900D922A95E1F7A9
:100C600020E1FC01DE01119601900D922A95E1F739
:100C700081E080934A0768E074E2CE0101960E9409
:100C80009D1D21E040E050E0BA01CE0101960E9496
:100C9000901CBE016F5F7F4F8EE10E94A0450097C0
:100CA00031F040E450E06BE477E00E94CA41609686
:100CB0000FB6F894DEBF0FBECDBFDF91CF91089580
:100CC00060E072EC81E090E00E944F0D60E070E027
:100CD0008EE392E00E94881980E796E00C94380E2B
:100CE0000F931F93CF93DF93CDB7DEB760970FB607
:100CF000F894DEBF0FBECDBF809110248132F1F594
:100D0000809111241F928F938EE093E09F938F9395
:100D10000E94D06C10920124109200240F900F902A
:100D20000F900F9080911124803509F06BC08E01D7
:100D30000F5F1F4F80E1D8011D928A95E9F788E087
:100D4000E2E1F4E2D80101900D928A95E1F78EEF8D
:100D500092E09F938F930E94D06CC8010E94A93BA0
:100D60008CEF92E09F938F930E94D06CC8010E94F9
:100D70001E060F900F900F900F9044C08F3309F014
:100D800041C0809111241F928F938CED92E09F932C
:100D90008F930E94D06C0F900F900F900F908091C6
:100DA00011248D3459F581E28093102468E074E2B7
:100DB000E3E1F4E2DB018D91BD01AF014150510946
:100DC000282F22952F7030E02B523C4FD9019C9157
:100DD000DA019C938F7090E08B529C4FDC018C91D8
:100DE00080833296B4E260317B0721F782E190E0A4
:100DF00090930124809300240E943D0E10920124C0
:100E00001092002480E1E8E1F4E2ABE5B7E0019064
:100E10000D928A95E1F760960FB6F894DEBF0FBE8B
:100E2000CDBFDF91CF911F910F91089540E150E028
:100E300068E174E28BE597E00E947D6C892B09F5EF
:100E40008CE393E09F938F930E94D06C88E194E2AF
:100E50000E94A93B86E393E09F938F930E94D06CFE
:100E600088E294E20E94A93B84E393E09F938F93EE
:100E70000E94D06C0F900F900F900F900F900F90DA
:100E800008950C943D0EEF92FF920F931F93CF9312
:100E9000DF93EC018C819D818E39910589F040F4BE
:100EA000892B09F064C08EE990E09D838C8308C093
:100EB000833A9105E1F08A3B910509F450C057C08F
:100EC00060E2CE0104960E949C3C823014F480E0E3
:100ED00051C044E050E063E474E0CE01C0960E944B
:100EE000B36C892B89F483EA90E09D838C837E0127
:100EF00084E0E80EF11C60E2C7010E949C3C823055
:100F000034F388A98F3239F080E180939C241D82CC
:100F10001C8282E02FC089A98E01065B1F4F8032A0
:100F200031F48FE299E6F801918380830FC0C70105
:100F30000E94813C8C0F9D1FFC0117A642E050E0EF
:100F4000BE01605D7F4FC8010E94C16C81E0FE015F
:100F5000E25BFF4F80838AEB90E09D838C836AE0A5
:100F6000CE0104960E949C3C8230ACF7B0CF1D822B
:100F70001C8283E0DF91CF911F910F91FF90EF9042
:100F80000895CF93DF93EC01898D9A8D8336910577
:100F900049F086379105D9F0892B19F583E690E061
:100FA0009A8F898FFB0101900020E9F7AF01415032
:100FB0005109461B570BCE0149960E941C3C8230BA
:100FC00014F480E011C086E790E09A8F898F4BE19E
:100FD00050E06BEF74E0CE0149960E941C3C8230D9
:100FE00084F31A8E198E83E0DF91CF9108950F93C9
:100FF0001F93CF93DF93EC018EA59FA588389105B1
:10100000B1F130F4009769F08638910519F16DC09F
:101010008E38910509F44EC08F38910509F455C0FA
:1010200064C08E01045B1F4FD8011D921C92CE013B
:10103000855B9F4F0E945905F80191838083892B1E
:10104000A9F58FE29EE632979183808386E890E04F
:101050009FA78EA768E474E0CE010E94C10782308A
:1010600014F480E045C088E890E09FA78EA7898DA2
:101070009A8D009721F08635910529F00EC086E5FE
:1010800090E09A8F898F48E550E06AEE73E0CE01D8
:1010900049960E941C3C823024F31A8E198E80E1FE
:1010A00080939C241FA61EA682E022C08EE890E0BA
:1010B0009FA78EA765EA74E0CE010E94C107823027
:1010C00084F28FE890E09FA78EA78E01045B1F4FEC
:1010D000D801ED91FC91CE011995823014F2F801FE
:1010E0001182108280E180939C241FA61EA683E0BB
:1010F000DF91CF911F910F9108950F931F93CF937D
:10110000DF93EC0180919C24982F907311F487FF5A
:1011100011C0209709F472C0FE01E45BFF4F1182F9
:101120001082BE0188E192E0DF91CF911F910F9173
:101130000C94E21A86FF35C088E192E00E94BD1A45
:10114000EC01009709F457C0BC018091A324909151
:10115000A4240E94843D49E150E08E01005D1F4FB0
:10116000B801CE0104960E943D3D49E150E0B8012E
:10117000CE0149960E943D3D1FA61EA6FE01E45BDE
:10118000FF4F11821082025E1F4FF801108260E053
:1011900075E0CE010E94F119CE010E944307F801CB
:1011A00020C0209741F183FF13C0CE010E94111A85
:1011B000892B89F080E280939C24FE01E45BFF4F41
:1011C00011821082BE0188E192E00E94E21A03C0FF
:1011D000CE010E94071ACE010E944307FE01E25B86
:1011E000FF4F8081813051F4CE01DF91CF911F916B
:1011F0000F910C94F70780E280939C24DF91CF91AC
:101200001F910F91089580E090E50E94673D88E16D
:1012100092E00C949F1A7F928F929F92AF92BF920E
:10122000CF92DF92EF92FF920F931F93CF93DF93B2
:101230004C01C0E0D0E0712C90E7E92E93E0F92E4C
:1012400023E7C22E23E0D22E35E7A32E33E0B32EC0
:10125000F401EC0FFD1F008110E0102F00278181A9
:10126000080F111D0115110569F477FC0DC011E07F
:10127000170D71101FC0BF92AF920E94D06C0F90DB
:101280000F9018C017144CF0CC2349F0DF92CF9286
:101290000E94D06C0F900F9002C077247A941F9315
:1012A0000F93FF92EF920E94D06C0F900F900F90CF
:1012B0000F90172D2296C031D10511F0712EC8CF95
:1012C000DF91CF911F910F91FF90EF90DF90CF9022
:1012D000BF90AF909F908F907F900895E6E4F1E0EB
:1012E000308120819081808182958695869583705A
:1012F000307C830F269526952073820F92959C70E3
:10130000890F0895FF920F931F93CF93DF93CDB76B
:10131000DEB728970FB6F894DEBF0FBECDBF0E9490
:1013200084110E94901146E069E180E00E94221140
:1013300080E00E947B110E94F90F84B784B784B7C4
:1013400084B784B7EEE9F6E222E432E43183208305
:101350003A968DB79EB70A97E817F907B8F387E171
:1013600095E09F938F9388EA94E09F938F930E94D8
:10137000D06C0E94B5190E94E81860E070E080E629
:1013800092E00E9488190E94B517E0918205F091C1
:10139000830519950E946E0990E00E94A711CE0165
:1013A00001960E94610C0F900F900F900F90882370
:1013B00041F088E894E09F938F930E94D06C0F9047
:1013C0000F9088E0FE013196A8E0B4E201900D9202
:1013D0008A95E1F7CE0101960E94145C0E946C0C84
:1013E0009F938F938EE794E09F938F930E94D06C8E
:1013F0000E94700C8C010E946C0CAE014F5F5F4F1D
:10140000B8010E94B3130E94C60B0E949E130E9453
:10141000740C0E94751488851F928F938F811F9280
:101420008F938E811F928F938D811F928F938C81CA
:101430001F928F938B811F928F938A811F928F931C
:1014400089811F928F9389E594E09F938F930E94E7
:10145000D06C0E946557E0911906F0911A06199513
:10146000E091F805F091F9051995E091C605F09124
:10147000C70519950E947714F82E00912506109142
:101480002606F80119950FB6F894DEBF0FBECDBF42
:10149000892B51F0F8011995BC0180E890E00E9479
:1014A000BB6B162F072F02C010E800E00E949B13B1
:1014B0001F92FF920F931F931F928F938091180694
:1014C0008F93809117068F938091F7058F9380916A
:1014D000F6058F9387E294E09F938F930E94D06CE0
:1014E0008AE194E09F938F930E94D06C89E094E00E
:1014F0009F938F930E94D06C60E070E082EB92E04B
:101500000E94881960E070E086E292E00E948819EB
:101510008FEC93E00E94F71581E094E09F938F9306
:101520000E94D06C0FB6F894DEBF0FBECDBF2896D8
:101530000FB6F894DEBF0FBECDBFDF91CF911F91E4
:101540000F91FF9008950E9482095CE3C52ED12C73
:10155000E12CF12C68E5462E62E0562E612C712CB0
:1015600002EB13E00E94F8180E949C118090C521A4
:101570009090C621A090C721B090C8210E9415105C
:1015800086169706A806B90669F30E941510EB01A6
:10159000382E292E6093C521D093C6218093C72170
:1015A0009093C821A70196010E94E36B672B682BDB
:1015B000692B81F42F923F92DF93CF93ACEFB3E08E
:1015C000BF93AF930E94D06C0F900F900F900F902D
:1015D0000F900F906091C5217091C6218091C72115
:1015E0009091C821A30192010E94E36B62307105C2
:1015F0008105910509F09EC01F9284E08F93A7EEAC
:10160000B3E0BF93AF930E94D06CCDE7D2E20F90CE
:101610000F900F900F908881882361F0CE01019682
:101620000E940B09A5EEB3E0BF93AF930E94D06C6C
:101630000F900F906C9632E2CD3ED30761F71F9268
:1016400084E18F9380ED93E09F938F930E94D06C01
:1016500080919402909195020E942F59EC010F9075
:101660000F900F900F902097A1F0CE010E940B09D0
:10167000AEECB3E0BF93AF930E94D06CBE018091FB
:101680009402909195020E941059EC010F900F90D6
:10169000EACF1F9284E18F938CEB93E09F938F931B
:1016A0000E94D06C0E94A51FEC010F900F900F902C
:1016B0000F9081E0209761F1CE0104960E940B0902
:1016C0008C8D1F928F931F930F930E94D06CCE012D
:1016D0000E94971F0E940B098F898F938E898F9389
:1016E0008D898F938C898F93AAEAB3E0BF93AF93D0
:1016F0000E94D06CCE010E94A91FEC0180E0ADB722
:10170000BEB71A960FB6F894BEBF0FBEADBFD2CF0C
:10171000882341F081EA93E09F938F930E94D06CDD
:101720000F900F9085E993E09F938F930E94D06C68
:101730000F900F908091C5219091C621A091C72153
:10174000B091C8219370AA27BB270397A105B105C3
:1017500009F008CFEEE9F6E280819181823492446B
:1017600079F0EE59F642FF93EF9388E793E09F9369
:101770008F930E94D06C0F900F900F900F90F2CE2D
:101780003A96E53F21E8F20738F3ECCE1F93CF936A
:10179000DF93CDB7DEB7A0970FB6F894DEBF0FBECC
:1017A000CDBF85E090E00E94446F182F282F35EFC1
:1017B000380F303108F0982F9095291709F476C02A
:1017C00080EE94E09F938F930E94D06C83EC94E022
:1017D0009F938F930E94D06C82E089830E946E0950
:1017E0008A830E946E098B838FEF8C838EEF8D83AB
:1017F0000E946E098E830E946E098F830E946E097B
:10180000888781E080930B08F89448E050E061E21B
:1018100070E0CE0101960E944A6FE7E1F5E00F907B
:101820000F900F900F90DE01119684918D93319659
:1018300085E0E532F807C9F74EE050E063E170E07B
:10184000CE0101960E944A6FEDE0F5E0DE011196AF
:1018500084918D93319685E0E731F807C9F74AE026
:1018600050E069E070E0CE0101960E944A6F6DEC95
:101870007BEA83E090E00E94626F60E070E081E0CC
:1018800090E00E94626F60E080E090E00E94546F00
:1018900060E070E087E090E00E94626F1AE16AE128
:1018A00075EE85E090E00E94626F7894812FA0969B
:1018B0000FB6F894DEBF0FBECDBFDF91CF911F9161
:1018C0000895F89448E050E061E270E00E942C6FC7
:1018D000789480910B08089583E090E00C94446F15
:1018E00081E090E00C94446F80E090E00C943C6FB9
:1018F000CF93DF93EC01888199818737910509F4B3
:1019000057C08E37910509F470C0892B09F084C047
:101910000E94E1188093C92110920F0810920E08BE
:1019200080910E0890910F08FC01EE0FFF1FE05E02
:10193000FD4F0190F081E02D3097B1F0DC01AE5306
:10194000BE4D1C920480F581E02D60E070E080E8DF
:1019500090E0199580910E0890910F080196909350
:101960000F0880930E08DCCF8093100887E790E083
:1019700039C0FC01EE53FE4D208127FD22C080912D
:101980000E0890910F08019690930F0880930E080F
:1019900080910E0890910F082091100830E0821776
:1019A00093073CF380910C0890910D08892BF1F27C
:1019B00010920D0810920C0810920F0810920E0849
:1019C000E7CFFC01EE0FFF1FE05EFD4F408151812C
:1019D0006091C92180E090E00E945B19892B49F455
:1019E0008EE790E0998388831BC08091C92168139A
:1019F00017C0E0910E08F0910F08EE53FE4D808164
:101A00008F77808380910C0890910D0801969093B8
:101A10000D0880930C08B3CF1982188283E001C0AF
:101A200081E0DF91CF9108954091100850E0E0E20D
:101A3000F2E020E030E0241735072CF46191719139
:101A40006817790751F4F901EE53FE4D80818068E3
:101A5000808386E292E00C94A9192F5F3F4FEBCF71
:101A6000CF93C82F80911108811109C080EC0E948A
:101A700077118DE00E94771181E0809311088C2FFF
:101A80000E947711CA3029F480EC0E9477111092DD
:101A900011088C2F992787FD9095CF91089564E7C1
:101AA0007EE080E00E94691180E392E090939B26A3
:101AB00080939A260895AF92BF92CF92DF92EF92D1
:101AC000FF920F931F93CF93DF935C01FC01808102
:101AD0009181009741F082309140D1F0F50111825F
:101AE000108283E0BAC01092150810921408109268
:101AF000B3081092B2081092B5081092B40881E0B1
:101B00008093B60882E091E0F5019183808302C062
:101B1000623811F081E0A1C011E01093CA21C09198
:101B2000B408D091B508CE018A5E974F6C01FC01D4
:101B30008081833499F58091B2089091B308C817D9
:101B4000D90760F58C1B9D0B069740F146E050E0ED
:101B500069E375E0C6010E947D6C892BF9F486E08B
:101B6000F60111928A95E9F710921508109214085F
:101B70001092B3081092B2081092B5081092B408EF
:101B80001093B608C0E4D5E089910E947711F5E082
:101B9000CD34DF07C9F700E010E04EC0E090140834
:101BA000F0901508CE15DF05B1F38701CE15DF05DE
:101BB00060F40C1B1D0B0D38110528F5A801B601AA
:101BC00080E194E20E948A6C20C004561F4F0C1BD7
:101BD0001D0B0D381105B8F4A0E1B4E2CC39D105E4
:101BE00038F4FE01EA5EF74F80818D932196F6CF9F
:101BF000E6E1F8E0C7018A5E974FE817F90729F098
:101C000021912D93FACF00E010E0F092B508E09218
:101C1000B4088091B60881110FC08091B2089091EC
:101C2000B308909315088093140881E08093B60858
:101C30008EE392E00E94A9191093012400930024DE
:101C4000012B09F45FCFE0911208F091130830974F
:101C500009F019950E94A53D55CFDF91CF911F91B5
:101C60000F91FF90EF90DF90CF90BF90AF900895CD
:101C7000909313088093120808950F931F93CF93A6
:101C8000DF9380EC0E947711E0E1F4E2C0E0D0E065
:101C90008091002490910124C817D907E0F4CC3337
:101CA000D10521F4E091A124F091A2248F010F5FCE
:101CB0001F4F8081803C29F48BED0E9477118CEDC1
:101CC00005C08B3D19F40E9477118DED0E947711AC
:101CD0002196F801DDCF80EC0E94771180E0DF9142
:101CE000CF911F910F9108959091B6089130B9F05E
:101CF00008F46DC0923039F09330D1F5803C09F092
:101D000066C081E00FC08C3D29F08D3D09F043C0D5
:101D10008BED01C080EC91E09093B60829C08B3D1B
:101D200021F482E08093B60852C0803C09F580918E
:101D3000B2089091B30820911408309115088217C9
:101D4000930709F444C04091B4085091B508421774
:101D5000530729F4909315088093140802C0109239
:101D6000B6088EE392E00E94A91981E090E0089500
:101D70006091B2087091B3089B012F5F3F4F2C39DF
:101D8000310511F420E030E04091B4085091B508DD
:101D90002417350761F483E08093B6088091140816
:101DA000909115089093B3088093B20810C0FB017E
:101DB000EA5EF74F80833093B3082093B2088435EE
:101DC00031F4FA01EA5EF74F8081833451F280E00A
:101DD00090E0089581589109029728F48091B708FE
:101DE0009091B808089580E090E00895649B0CC03D
:101DF00089EB98E00E94111A31E020E0892B09F06C
:101E000030E0832F922F089581E090E0089581388B
:101E1000910549F5672B09F18091B7089091B808B1
:101E2000892B21F50E946E6060E070E089EB98E0FC
:101E30000E94F1198DB18DB9749A80916A00816008
:101E400080936A00EC9A81E090E09093B8088093C8
:101E5000B70878940E94716009C01092B808109277
:101E6000B708EC9803C080E090E0089581E090E02E
:101E700008951F920F920FB60F9211240BB60F9276
:101E80002F933F934F935F936F937F938F939F9382
:101E9000AF93BF93EF93FF93E29914C089EB98E05F
:101EA0000E94111A892B71F00E946E6060E270E04E
:101EB00089EB98E00E94F11981E695E00E94140DEB
:101EC0000E947160FF91EF91BF91AF919F918F91AF
:101ED0007F916F915F914F913F912F910F900BBE2A
:101EE0000F900FBE0F901F9018958158910902977F
:101EF00028F48091BD089091BE08089580E090E09C
:101F00000895769B0CC08FEB98E00E94111A31E087
:101F100020E0892B09F030E0832F922F089581E093
:101F200090E008958138910529F5672BE9F08091BB
:101F3000BD089091BE08892B01F560E070E08FEB41
:101F400098E00E94F1198DB18DB9769A80916A005E
:101F5000806380936A00EE9A81E090E09093BE08DF
:101F60008093BD08789408951092BE081092BD0821
:101F7000EE9803C080E090E0089581E090E008953D
:101F80001F920F920FB60F9211240BB60F922F9340
:101F90003F934F935F936F937F938F939F93AF93F1
:101FA000BF93EF93FF938CB3867081F48FEB98E02F
:101FB0000E94111A892B51F060E270E08FEB98E0DB
:101FC0000E94F1198DE695E00E94140DFF91EF91AA
:101FD000BF91AF919F918F917F916F915F914F9141
:101FE0003F912F910F900BBE0F900FBE0F901F903F
:101FF0001895F8941092B60016BC89E787BD82E068
:1020000084BD95E095BD95B395BB80936E007894A3
:1020100008958091C3089091C4082091C30830911D
:10202000C40882179307A9F708950F931F9360912F
:10203000CF217091D0218091D1219091D221009116
:10204000CF211091D0212091D1213091D221601740
:1020500071078207930759F71F910F910895CF9346
:102060009C01CFB7F8948091C3089091C408820F67
:10207000931F9093C4088093C3088091CB219091C3
:10208000CC21A091CD21B091CE21F901E038F1050C
:10209000B8F0E058F1094091CF215091D0216091E2
:1020A000D1217091D2214F5F5F4F6F4F7F4F40938F
:1020B000CF215093D0216093D1217093D221E6CFCC
:1020C000220F232F221F330B3195820F931FA11D47
:1020D000B11D8093CB219093CC21A093CD21B093BF
:1020E000CE21CFBFCF9108951F920F920FB60F92BE
:1020F00011240BB60F922F933F934F935F936F93DF
:102100007F938F939F93AF93BF93EF93FF938091B0
:10211000C3089091C40801969093C4088093C308A3
:102120008091C3089091C4088F779927892B99F4DF
:102130008091CF219091D021A091D121B091D22135
:102140000196A11DB11D8093CF219093D021A09322
:10215000D121B093D2210E941F17892B11F00E9428
:102160003816FF91EF91BF91AF919F918F917F9121
:102170006F915F914F913F912F910F900BBE0F90F8
:102180000FBE0F901F9018951F920F920FB60F92CF
:1021900011240BB60F922F933F934F935F936F933E
:1021A0007F938F939F93AF93BF93EF93FF93809110
:1021B000C600E091D521F091D621309709F019950C
:1021C000FF91EF91BF91AF919F918F917F916F910F
:1021D0005F914F913F912F910F900BBE0F900FBECB
:1021E0000F901F9018951F920F920FB60F92112407
:1021F0000BB60F922F933F934F935F936F937F9301
:102200008F939F93AF93BF93EF93FF938091CE00F3
:10221000E091D321F091D421309709F01995FF91E5
:10222000EF91BF91AF919F918F917F916F915F914E
:102230004F913F912F910F900BBE0F900FBE0F90BB
:102240001F90189581110EC01092C5006093C400B4
:1022500088E98093C1004093C2001092D621109269
:10226000D5210895813069F41092CD006093CC009F
:1022700088E98093C9004093CA001092D42110923B
:10228000D3210895811107C08091C00085FFFCCF44
:102290006093C6000895813031F48091C80085FFB5
:1022A000FCCF6093CE000895CF93C82F8A3031F4CD
:1022B0006DE08091C5080E94421102C08D3029F066
:1022C0006C2F8091C5080E94421180E090E0CF9170
:1022D0000895811105C07093D6216093D52108958A
:1022E000813021F47093D4216093D3210895682F15
:1022F00080E00C9442118093C50888E492E09093AA
:102300009B2680939A26089584B7877F84BF88E1AF
:102310000FB6F89480936000109260000FBE08958D
:102320002FE088E190E00FB6F894A89580936000C4
:102330000FBE209360000895A895089588E10FB618
:10234000F89480936000109260000FBE08950C9482
:10235000726C0C946E6C80959091C6088923809362
:10236000C6080C94746081E090E0089581E090E0EC
:10237000089581E090E0089581E090E008958091D3
:10238000DA2190E008958091390181FF09C08091A0
:1023900039018D7F8093390189E190E00197F1F750
:1023A00023E040E06FE182E491E00E941D1585E0AA
:1023B00090E00197F1F708959091390191FD0AC0DD
:1023C000282F803108F02FE040E06FE085E491E0B5
:1023D0000C941D150895AB0122E0260F27FD08C0BF
:1023E000BC0187EC98E00E948A6C80E090E0089540
:1023F0008FEF9FEF08958091390181FD10C040E07B
:102400006FE181E491E00E9413158F3131F0982F34
:102410009F7E915081E0923018F480E0089581E031
:1024200008958091390181FD04C00E94FB11882329
:10243000C1F308958091390181FD0EC040E06FE144
:1024400081E491E00E941315282F2F7E81E090E017
:10245000213021F080E0089580E090E0089510920E
:1024600062228091390181FD0DC00E94111280917C
:10247000390181FD07C00E94C3118091390182603A
:1024800080933901089580916222882321F00E946F
:10249000FB110E942F1280E090E0089540E06FE170
:1024A00081E491E00C941315CF93DF93C82F88EF4C
:1024B0008C0F823038F08C2F8F7E863019F0C93126
:1024C00009F048C08091390181FD47C00E94111276
:1024D0000E944E12D82FC817D1F1C83029F480912C
:1024E00039010E94C31124C0C93119F4863181F425
:1024F00004C0C63169F4893159F429E040E06FE144
:1025000082E491E00E941D15E5E0F0E03197F1F7DB
:102510002C2F40E06FE182E491E00E941D15D8303D
:1025200019F4E1EDF2E002C0E5E0F0E03197F1F7F7
:102530000E944E128C1759F0C63029F4813039F0C0
:1025400083E490E00CC0C631D9F78131C9F780E44B
:1025500090E005C082E490E002C084E490E0DF9166
:10256000CF91089581E0809362229091390191FF8B
:1025700015C0809361222FB77894809139018091A2
:1025800039018D7F8093390180E197E2309161229A
:10259000332319F001970097C9F72FBF86E10E94F6
:1025A00054120C94111280916222811102C00E9477
:1025B000B21281E090E008950F931F93CF93DF93C1
:1025C0001F92CDB7DEB780916222882361F080919F
:1025D000390181FF02C080E033C00E94FB118823D3
:1025E000D1F310E003C00E94D31211E080E8809381
:1025F000550186E00E94541281E08093DB218FB761
:1026000089837894109247018091DB218111FCCF5E
:1026100089818FBF9091470181E09E3008F080E072
:10262000082F019586E10E94541210925501111154
:102630000E9443120295069506950370802F8170C3
:1026400090E00F90DF91CF911F910F9108958FEF40
:1026500080934E0120E044E060EF8CE691E00E9420
:102660001D1520E041E06EE08CE691E00E941D1512
:1026700080E880936F018091460180936D0121E095
:1026800047E060E884E491E00E941D1520E046E008
:1026900060E484E491E00E941D1521E042E064E0E2
:1026A0008DE491E00E941D1521E041E063E08DE49E
:1026B00091E00E941D15569A5E9A21E045E060E285
:1026C00084E491E00C941D1589EF97E00197F1F7F0
:1026D0000E9412151092DF211092DE211092DD214E
:1026E000E9E3F1E080818E7F808380818D7F80832C
:1026F00081E89BE10197F1F780818160808323E08D
:1027000040E06FE182E491E00E941D1589EF97E0BF
:102710000197F1F780915D0180915E010E9427137E
:1027200060E070E086E592E00E9488190E94B21293
:1027300081E090E00895809148090895CF93DF9358
:102740001F92CDB7DEB789830E94111289818093D1
:102750004809282F40E06FE188E491E00F90DF9175
:10276000CF910C941D15FA0180936201909363013F
:1027700060936001709361013097C1F08081809314
:102780006B01818180936A018281809369018381D9
:1027900080936801848180936701858180936601BD
:1027A000868180936501878180936401089586E521
:1027B00092E00E94A91981E08093DA2181E090E003
:1027C00008951F93CF93DF932091DE2112E8129F8B
:1027D00090011124D901A152BE4D4C91442309F41A
:1027E00043C047FD08C0433030F050E0EA01229773
:1027F0006C177D0710F41C9237C0B90160527E4DF2
:102800000E948A6CE091DE211E9FF0011124E152AA
:10281000FE4DDF01A058BF4F8C918093D7211082CD
:102820001092DE218091DF21882319F00E94D713B6
:1028300002C01092DA21809147018093D8219091B3
:10284000D921992311F0891710F48093D92160912F
:10285000D82170E084E00E94D45B6091D72170E0C1
:1028600083E00E94D45B02C0C0E0D0E0CE01DF91E3
:10287000CF911F9108950F931F93CF93DF931F92D2
:10288000CDB7DEB78C01FC0180819181009709F101
:102890008136954029F0F8011182108283E01FC033
:1028A0006238E1F40E946F5B8FB78983F8940E94CD
:1028B000185B60E870E00E94E11329812FBF1816B1
:1028C00019063CF40E94135BE0911F06F09120066C
:1028D000199581E695E0F8019183808381E00F905E
:1028E000DF91CF911F910F9108950C94DC1180918D
:1028F000390181FD06C040E06FE085E491E00C9471
:10290000131580E10895CF92DF92FF921F93CF932A
:10291000DF931F92CDB7DEB7F82E8091390181FD8C
:102920000DC00E94111289E10E94541286E00E949B
:10293000DF5B892BB9F4C12CD12C1DC081E08093C1
:102940006122909139019D7F9093390120E137E216
:1029500080916122882329F3215031092115310505
:10296000B9F7DFCF0E947714C82E86E00E94DF5BA4
:1029700081500E94DC118FB78983F89490913901BE
:10298000926090933901909139019D7F9093390124
:1029900062E06F0D87EC98E00E94621589818FBF1D
:1029A0000E94111245E060EE82E491E00E9413154E
:1029B000182F86E00E94DF5B892B19F08C2D0E9476
:1029C000DC1180916222882319F00E94B21202C0A9
:1029D0000E942F12123040F0133041F0153041F0B8
:1029E000173039F411E005C010E003C012E001C057
:1029F00013E0812F90E00F90DF91CF911F91FF9016
:102A0000DF90CF900895CF93DF93EB010E94EB11FD
:102A1000009729F4CE01DF91CF910C948314DF91BC
:102A2000CF9108950895FC018081862390E002C033
:102A3000959587954A95E2F70895CF93DF931F9276
:102A4000CDB7DEB73FB73983F894FC015081362FFC
:102A500030955323042E01C0220F0A94EAF726234F
:102A6000522B508389818FBF0F90DF91CF910895B2
:102A700040917B012DEF240FFC012D3738F010829F
:102A8000E058FF4F10823196108208954193A0E8DC
:102A9000B1E050E8540F9D012F5F3F4F6C9161935F
:102AA000521711F0D901F7CF4150E42FF0E0E05870
:102AB000FE4F2181FC01E058FF4F2083319621E039
:102AC0002083089560938001E1E8F1E061589F015F
:102AD0002F5F3F4FDC014D91CD014083621711F014
:102AE000F901F5CF08951F920F920FB60F9211249E
:102AF0000BB60F922F933F934F935F936F937F93F8
:102B00008F939F93AF93BF93EF93FF938091470170
:102B10008093D8218091DD2122E8829FC001112479
:102B200081529E4D0E9438151092DD210E94D713CC
:102B3000FF91EF91BF91AF919F918F917F916F9195
:102B40005F914F913F912F910F900BBE0F900FBE51
:102B50000F901F9018951F920F920FB60F9211248D
:102B60000F900FBE0F901F9018951F920F920FB6E7
:102B70000F9211240F900FBE0F901F9018951F9267
:102B80000F920FB60F9211240F900FBE0F901F904F
:102B900018951F920F920FB60F9211241092612276
:102BA0000F900FBE0F901F9018951F920F920FB6A7
:102BB0000F9211241092DC210F900FBE0F901F90E6
:102BC00018951F920F920FB60F9211240F900FBEFF
:102BD0000F901F9018951F920F920FB60F9211240D
:102BE0001092DB210F900FBE0F901F901895CF937E
:102BF000DF93EC0189919991009729F060E070E0F2
:102C00000E948819F7CFDF91CF91089580914B09E9
:102C100090914C09892B29F410924A091092490984
:102C200008950E940910E0914B09F0914C0922810E
:102C3000338140815181240F351F281B390B0480BB
:102C4000F581E02D309769F0428153816081718177
:102C5000460F571F481B590B4217530780F79A011D
:102C6000EECF280F391F30934A0920934909089560
:102C700080E692E00C94A919EF92FF920F931F93B4
:102C8000CF93DF938C01FC0180819181009799F0B3
:102C900089359105D9F0F8011182108283E068C06E
:102CA000868197818417950709F049C00480F581D2
:102CB000E02D3097A9F710924C0910924B0989E545
:102CC00090E0F8019183808381E052C0673891F1F0
:102CD0006238A9F7C0914B09D0914C09E12CF12C35
:102CE000209769F3CE010E94111A892BF1F0AE01F1
:102CF00068E88E819F810E945B19892BA1F41F8255
:102D00001E828C819D81E114F10421F0F7019583ED
:102D1000848304C090934C0980934B091D821C82CC
:102D20000E940616D7CF0E9438167E010C80DD81E6
:102D3000C02DD6CFE0914B09F0914C09BACFF0935A
:102D40004C09E0934B09A481B581109709F4B7CFE2
:102D500016968D919C9117978417950711F0FD0198
:102D6000F2CF14968D919C91159795838483EBCF28
:102D7000DF91CF911F910F91FF90EF900895CF9326
:102D8000DF93EC010E9438168E819F8130914B09B0
:102D900020914C09892B91F0E32FF22F309771F09D
:102DA000EC17FD0739F48091FC099091FD09978398
:102DB000868310C00480F581E02DF0CF8091FC095E
:102DC0009091FD099F838E833C832D83D0934C0982
:102DD000C0934B09DF91CF910C940616CF93DF93EC
:102DE000EC010E94F119CE01DF91CF910C94BF1636
:102DF000CF93DF93EC010E94FD19CE01DF91CF91BB
:102E00000C94BF16CF93DF93EC010E94071ACE01FA
:102E1000DF91CF910C94BF1621E030E0FC01868158
:102E20009781892B11F020E030E0C9010895FC0161
:102E30002281338180819181820F931F089581E0E7
:102E400090E020914B0930914C09232B11F480E044
:102E500090E00895CF93DF93EC01E0914B09F0915E
:102E60004C098E179F0769F48C819D8190934C09C2
:102E700080934B090DC0848195818C179D0721F0AB
:102E8000FC013097C1F706C08C819D8195838483B6
:102E90000E9406161D821C821F821E82DF91CF9126
:102EA0000895EF92FF920F931F93CF93DF938C01BE
:102EB0007A01FC0180819181009741F08A3491056B
:102EC00001F1F8011182108283E048C08EE499E09C
:102ED0000E942D1AEC01209751F06C817D81CE016A
:102EE00002960E94EE160990D881C02DF4CF81E0A1
:102EF00080934D098AE490E0F8019183808381E01A
:102F00002DC06838E1F78EE499E00E942D1AEC019B
:102F1000209781F3CE010296E816F906D9F4BE0196
:102F20008EE499E00E94411AE090FC09F090FD09BE
:102F30008A859B859093FD098093FC09EC85FD852E
:102F4000309719F08E859F851995F092FD09E092D2
:102F5000FC09D0CF0990D881C02DDACFDF91CF9175
:102F60001F910F91FF90EF90089510924D098EE4FC
:102F700099E00E94291A60E070E08AE692E00C94E1
:102F800088190F931F93CF93DF93EC010091FC09F5
:102F90001091FD091B870A875D874C873F872E8725
:102FA00080914D09882379F08AE692E09093FD099B
:102FB0008093FC09CE0102960E94EE161093FD0943
:102FC0000093FC0902C07D836C83BE018EE499E00E
:102FD000DF91CF911F910F910C945C1A0F931F9367
:102FE000CF93DF93EC0180914D09882391F00091FC
:102FF000FC091091FD098AE692E09093FD09809307
:10300000FC09CE0102960E94F8161093FD09009368
:10301000FC09BE018EE499E0DF91CF911F910F91E1
:103020000C945C1ACF93DF93EC0180914D098823B7
:1030300029F0CE0102960E942A1704C01F821E8228
:1030400019861886BE018EE499E0DF91CF910C9429
:10305000411A1F93CF93DF93EC01162FEC81FD8172
:103060003097D1F09093FD098093FC0982E0888726
:10307000CE0106961995992787FD9095029702979C
:1030800010F0133839F4BE01CE01DF91CF911F91BA
:103090000C94561881E08887DF91CF911F91089595
:1030A000FC01208520FD0C9429180895CF92DF9211
:1030B000EF92FF920F931F93CF93DF93EC016B017D
:1030C000E090FC09F090FD090091FE091091FF09C4
:1030D000F801EC17FD0739F0309709F44AC0019068
:1030E000F081E02DF6CF209709F443C0888588232E
:1030F00009F118860115110561F0C017D10729F0F3
:10310000AE0167E8C8010E945018F80100811181E2
:10311000F1CFEC81FD81309769F0CC15DD0551F0E0
:10312000D093FD09C093FC0940E050E063E8CE0174
:1031300006961995E091FE09F091FF09CE17DF0779
:1031400069F4888199819093FF098093FE090DC0ED
:10315000808191818C179D0721F0FC013097C1F788
:1031600004C08881998191838083F092FD09E09267
:10317000FC09DF91CF911F910F91FF90EF90DF90AD
:10318000CF9008951F93CF93DF9310925809C09169
:10319000FE09D091FF0911E0209779F089858823F5
:1031A00041F01887198640E050E062E8CE010E94A5
:1031B00029180990D881C02DEFCFDF91CF911F91B1
:1031C00008958091FB0991E0980F9093FB09089571
:1031D0008AE88093FB091092F9091092FA0910927B
:1031E000FF091092FE091092FD091092FC09089542
:1031F0008091580981110E94C2187091FA097723B1
:1032000009F451C0E091F9092E2F30E085E0E89FE4
:10321000F0011124E75AF64F60816093570941810C
:10322000528150935609409355098381948190931C
:103230005409809353092F5F3F4F2F7133272093F9
:10324000F90971507093FA09009731F58091FE09E0
:103250009091FF09909352098093510980915109EF
:1032600090915209892BF9F08091580981110E949F
:10327000C2184091550950915609609157098091A3
:103280005109909152090E945018E0915109F09112
:10329000520980819181DECF613819F421E0FC016F
:1032A00020870E945018809158092091FA0990E0D7
:1032B000820F911D08952091FA092032B9F0E09112
:1032C000F909E20FEF71E093500935E0E39FF00157
:1032D0001124E75AF64F608352834183948383839A
:1032E0002F5F2093FA0980E090E0089581E090E05C
:1032F0000895CF93DF93C091FC09D091FD090E94FE
:103300005018D093FD09C093FC09DF91CF91089527
:10331000AB013091FE092091FF09E32FF22FE8174E
:10332000F907B1F0309721F00190F081E02DF7CF4F
:10333000009771F0FC01308321839093FF09809303
:10334000FE0921E020871782168261E80C94791922
:103350000895009749F0FC0120852150223020F487
:1033600021E021872093580908950C94B2600F93AF
:103370001F93FC01CB014091000A5091010A338355
:1033800022831583048371836083F093010AE093A1
:10339000000A452B11F40E94CC6080E090E01F9160
:1033A0000F9108958091000A9091010A0097C1F051
:1033B0001092010A1092000ADC0114966D917C9122
:1033C00015971296ED91FC9113971995E091000ACB
:1033D000F091010A309721F0808191810C94CC60AA
:1033E0000895CF93DF93EC017B836A830E940910D9
:1033F00099838883DF91CF910895FC018081918129
:1034000022813381820F931F918380830895CF930C
:10341000DF93EC010E94091099838883DF91CF919B
:103420000895CF93DF93EC010E9409102881398120
:10343000821B930B9C012F5F3F4F81E090E04A81FC
:103440005B814217530710F080E090E0DF91CF914D
:103450000895FC01118210820895FC018081918100
:103460000895DC01ED91FC91309731F080819181DC
:10347000009729F0FC01FACF80E090E00895CF0199
:103480000895DC01ED91FC913097A9F0A0E0B0E047
:1034900020813181E617F70741F4109709F4DC0128
:1034A0002D933C931182108208952115310519F056
:1034B000DF01F901EDCF08950F931F93CF93DF93B1
:1034C0008C01EB010E94411A19821882C8010E94E6
:1034D000311A009711F4F80101C0FC01D183C083B7
:1034E000DF91CF911F910F9108950F931F93CF9369
:1034F000DF93EC018B010E94411A88819981F801C8
:103500009183808319830883DF91CF911F910F915D
:103510000895DC01ED91FC9180E090E0309729F076
:1035200001960190F081E02DF9CF0895009721F0E8
:10353000FC0180819181089580E090E00895CF930F
:10354000DF93EC014A815B8160E070E08C819D81BA
:103550000E94A56C2A813B8188819981289FA001C6
:10356000299F500D389F500D112460E070E08E812E
:103570009F81DF91CF910C94A56CFC018281938196
:1035800020E030E028173907D1F0A481B581A20FDF
:10359000B31F4C91411110C081E08C9380819181C7
:1035A000289FA001299F500D389F500D112486811E
:1035B0009781840F951F08952F5F3F4FE3CF80E0E1
:1035C00090E00895FC01268137814281538180E09B
:1035D00090E084179507C9F02617370781F4A48176
:1035E000B581A80FB91F2C91121614F421502C93F9
:1035F0000480F581E02DE80FF91F80810895A081F6
:10360000B1812A0F3B1F0196E4CF8FEF0895FC0193
:103610008681978168177907A0F0A081B1814281E6
:103620005381A49F9001A59F300DB49F300D1124AC
:10363000280F391F81E090E06217730720F080E0C7
:10364000089580E090E00895DC0112964D915C9120
:10365000139780E090E020E030E02417350769F010
:103660001496ED91FC911597E20FF31F60816111A3
:1036700001C001962F5F3F4FF0CF08958F929F9228
:10368000AF92BF92CF92DF92EF92FF920F931F9370
:10369000CF93DF93EC015A014901F70111821082A7
:1036A000649F6001659FD00C1124C80ED91E069539
:1036B0000695069510E0CC15DD05B0F488818823C9
:1036C00069F0A801B401CE0101960E947D6C892B9E
:1036D00041F4F701D183C08380E00EC0F701D183AC
:1036E000C083CA0DDB1DE7CFF70180819181892B53
:1036F00011F081E001C082E0DF91CF911F910F9125
:10370000FF90EF90DF90CF90BF90AF909F908F9001
:1037100008953F924F925F926F927F928F929F9205
:10372000AF92BF92CF92DF92EF92FF920F931F93CF
:10373000CF93DF93EC01962E342E822E2701380191
:1037400082E0E82E8AE0F82E062F9E014CE150E040
:1037500064E088E893E20E943E1B813009F5E09125
:10376000020AF091030A8083A091020AB091030A31
:1037700080E1FE01119601900D928A95E1F7E091AA
:10378000020AF091030A918A328A838E438A548A0C
:10379000658A768AA78AB08EC18ED28ECF0102C08A
:1037A00080E090E0DF91CF911F910F91FF90EF901B
:1037B000DF90CF90BF90AF909F908F907F906F9051
:1037C0005F904F903F9008950F931F93CF93DF9397
:1037D0008C0188E893E29093030A8093020AC091D7
:1037E000020AD091030A83E2C83FD807A8F488816F
:1037F000882361F0498946954695469550E0B80181
:10380000CE0101960E947D6C892B41F06C96D0937D
:10381000030AC093020AE3CF80E001C081E0DF9198
:10382000CF911F910F910895EF92FF920F9336E081
:10383000E32E3AE0F32E00E89C014CE150E064E016
:103840008DE792E20E943E1B811105C08091060A1D
:103850009091070A02C080E090E00F91FF90EF90F6
:1038600008952DE732E23093070A2093060A282FA5
:10387000332727FD3095E091060AF091070A92E27E
:10388000ED3EF907B0F49081992369F08F3F29F05C
:10389000418950E04217530731F491819E3F19F45A
:1038A0009281903849F07C96F093070AE093060ADB
:1038B000E2CF80E090E00895CF010895EF92FF926B
:1038C0000F93CF93DF93EC0144E0E42E4AE0F42E13
:1038D00000E89C0141E150E066E080E293E20E9452
:1038E0003E1B8130A9F4E091040AF091050A80831F
:1038F000A091040AB091050A80E1FE0111960190A1
:103900000D928A95E1F78091040A9091050A02C010
:1039100080E090E0DF91CF910F91FF90EF900895BC
:103920008F929F92AF92BF92EF92FF920F931F934D
:10393000CF93DF93EC014A015B01122F56E0E52E95
:103940005AE0F52E00E89C014CE150E064E08DE780
:1039500092E20E943E1B813009F057C0E091060AB6
:10396000F091070A8083A091060AB091070A90E1BE
:10397000FE01119601900D929A95E1F7E091060AE9
:10398000F091070A128B81149104A104B10411F47F
:10399000838B07C0138AB501A401CF0144960E940E
:1039A0005961E091060AF091070A91E0918B8FEF3F
:1039B0008093080A22E02093090A10920B0A1092C1
:1039C0000A0A10920D0A10920C0A10920F0A109215
:1039D0000E0A1092110A1092100A1092120A909375
:1039E000130A8093140A8D858093150A8E859F850E
:1039F0009093170A8093160A88E09AE00E945E1C52
:103A00008091060A9091070A02C080E090E0DF9161
:103A1000CF911F910F91FF90EF90BF90AF909F902B
:103A20008F900895009711F0FC0110820895EF9295
:103A3000FF920F9364E0E62E6AE0F62E00E89C0108
:103A400041E150E066E080E293E20E943E1B81117A
:103A500005C08091040A9091050A02C080E090E0C0
:103A60000F91FF90EF900895CF93DF93EC010097B3
:103A700099F18FEF8093080A92E09093090A1092CF
:103A80000B0A10920A0A10920D0A10920C0A109258
:103A90000F0A10920E0A1092110A1092100A109238
:103AA000120A91E09093130A8093140A8E858093F2
:103AB000150A8F8598899093170A8093160A88E0D3
:103AC0009AE00E94171D9093050A8093040A0097BC
:103AD00011F00E94121D1882DF91CF9108958DE799
:103AE00092E29093070A8093060AE091060AF09109
:103AF000070A82E2ED3EF807C0F48081882379F05E
:103B0000838981110CC0CF0144960E946961892B81
:103B100031F08091060A9091070A0E94341D80912D
:103B2000060A9091070A4C96DCCF0E94E0210E9481
:103B3000372D88EF93E20C94F816DC01189628E0F4
:103B4000FB0101900D922A95E1F7FC01208532E0FE
:103B5000232720870895DC01FB0180E03D919191AE
:103B600028E0280F391304C0822F2038B9F70895B0
:103B7000932797FD04C08F5F990F8213FACF0895A2
:103B8000BF92CF92DF92EF92FF920F931F93CF934A
:103B9000DF93EC016B01FB0180818E3F21F4818179
:103BA000803819F431C08F3F79F18DE792E290931C
:103BB000070A8093060AE12CF12CB12C0091060A29
:103BC0001091070AF2E20D3E1F0710F5F8018081FF
:103BD000882399F08189813081F481818E3F19F4A5
:103BE0008281803851F0B8016F5F7F4FC6010E941B
:103BF000AB1D8B1510F07801B82E045E1F4F10938B
:103C0000070A0093060ADACF81E00E94311C7C018A
:103C1000E114F10489F4198218821B821A821D8230
:103C20001C821F821E82198618861B861A861D8694
:103C30001C861F861E8608C080E1F7013196DE01D2
:103C400001900D928A95E1F7DF91CF911F910F912D
:103C5000FF90EF90DF90CF90BF900895CF92DF92CA
:103C6000EF92FF92CF930E94A911C82F0E94A91131
:103C7000C0907022D0907122E0907222F090732256
:103C800020E030E03C2F820F931FBC0180E090E0E9
:103C9000A70196010E94E36BF694E794D794C7942A
:103CA0006C0D7D1D8E1D9F1DCF91FF90EF90DF90BD
:103CB000CF9008952F923F924F925F926F927F9292
:103CC0008F929F92AF92BF92CF92DF92EF92FF922C
:103CD0000F931F93CF93DF930E94842C0E947D1F2C
:103CE00080E7E8E8F3E2DF011D928A95E9F7EBE669
:103CF000F2E28BE191E0DF019C011D922150304006
:103D0000E1F78CE18093872382E18093862380E032
:103D100095E0A0E0B0E080839183A283B38380E448
:103D200080936F2280EC97E2A9E0B0E0809370224C
:103D300090937122A0937222B09373220E942E1E40
:103D400060937422709375228093762290937722E9
:103D500080E197E2A0E0B0E080937822909379220E
:103D6000A0937A22B0937B2210927C22A8E04A2E64
:103D7000AAE05A2E8EEF90E8D2018D939C93BAE080
:103D80006B2EBAE07B2EF30111821082CCE08C2ED8
:103D9000CAE09C2ED4011D921C92CEE0DAE019827A
:103DA0001882A12CB12C6501E12CF12C870120E0B7
:103DB00040E060E4C2010E94891B68E074E2C20135
:103DC0000E949D1D21E040E050E0BA01C2010E9426
:103DD000901CAA24AA9412E0B12EF201B182A08212
:103DE000D3011D921C92F401118210821982188253
:103DF00000E1C02E0AE0D02ED6011D921C9282E175
:103E0000E82E8AE0F82EF7011182108204E11AE010
:103E1000D8011D921C9296E1292E9AE0392E80E05D
:103E200091E0F10191838083C2010E945E1CD20166
:103E3000AD92BC92F30111821082D4011D921C92AA
:103E400019821882F60111821082D7011D921C92EC
:103E5000F8011182108280E092E0D1018D939C9351
:103E6000C2010E945E1C6CE070E088EF93E2DF917B
:103E7000CF911F910F91FF90EF90DF90CF90BF9067
:103E8000AF909F908F907F906F905F904F903F90FA
:103E90002F900C94EE16CF92DF92EF92FF920F9339
:103EA0001F93CF93DF938C017B016A018AE19AE033
:103EB0000E942D1AEC010097B9F00230110528F488
:103EC00084E59AE00E94891A04C08091180A9091B2
:103ED000190AEA81FB819C01A601B701C801199565
:103EE000CE010E94961AE6CFDF91CF911F910F91DC
:103EF000FF90EF90DF90CF9008958CE792E00E94C2
:103F00009F1A8EEA9CE00E94291A61E870E28CE810
:103F100092E00E94F05884E792E00E949F1A84E5A4
:103F20009AE00E94291A8AE19AE00C94291A0097D3
:103F300049F0FC01628173818CE892E00E94915A01
:103F40000C94082D80E090E008958EEA9CE00C949B
:103F50002D1A009711F00C94961A80E090E00895C5
:103F6000CF92DF92EF92FF920F931F93CF93DF9345
:103F70008C010E94A51FEC01C12CD12CE12C2097B3
:103F8000D9F0FC8CFC1498F04F2D4695469546953B
:103F900050E0BE016C5F7F4FC8010E947D6C892B91
:103FA00031F480E8F81661F0CF2CDC2EED2ECE0136
:103FB0000E94A91FEC01E3CFCD2DDE2D209789F0C3
:103FC0008EEA9CE00E942D1AC817D90751F0BE0155
:103FD0008EEA9CE00E94411ABE018EEA9CE00E949B
:103FE000751ACE01DF91CF911F910F91FF90EF9045
:103FF000DF90CF9008950F931F93CF93DF93EC0141
:10400000009709F45AC08A819B81892B09F455C015
:10401000BE018EEA9CE00E94411AEA81FB81828106
:1040200093810E942D1A8C01009751F0FC0182812E
:1040300093818C179D0741F0C8010E94961AF3CF17
:10404000CE0104960E94A93BEA81FB81B8018281DE
:1040500093810E94411AEA81FB81828193810E94AF
:104060002D1A892B41F4EA81FB81628173818CE8EE
:1040700092E00E94605ABE018CE792E00E94E21A30
:10408000B80184E892E00E94E21A8091180A9091A7
:10409000190A01979093190A8093180ACE010E9479
:1040A000971FBE016C5F7F4FAC0183E090E0DF9112
:1040B000CF911F910F910C944B1FDF91CF911F91C6
:1040C0000F910895CF93DF93EC010097B9F08A81A7
:1040D0009B81009799F00E942D1A009741F0FC01F6
:1040E000828193810E94FB1F8A819B81F4CFBE0154
:1040F0008CE892E0DF91CF910C94605ADF91CF91E0
:1041000008950C9462209F92AF92BF92CF92DF925B
:10411000EF92FF920F931F93CF93DF936C01962E34
:104120005A01CA010E940A2D7C01009709F452C06D
:10413000C6010E94B01FEC01009781F00E94971FFA
:10414000009749F040E150E0BC01C5010E947D6C40
:10415000892B09F46EC0CE010E94FB1F8091180AC2
:104160009091190A449731F48EEA9CE00E94311A2A
:104170000E94FB1FB7018CE892E00E94315A8C012B
:10418000009789F4B7018CE892E00E9451598C01A4
:10419000009701F1DC0113969C938E9312971D9268
:1041A0001C920E94291A8CE792E00E94BD1AEC0131
:1041B000009781F0BC018EEA9CE00E94751A84E8A9
:1041C00092E00E94BD1A009741F4BE018CE792E094
:1041D0000E94E21A80E090E02DC0FC01D383C283EC
:1041E000BC01D80112968D919C9113970E945C1A84
:1041F0001B830A838091180A9091190A0196909363
:10420000190A8093180A80E1F601DE0114960190E4
:104210000D928A95E1F79C8EFE01749688E0DF018D
:104220001D928A95E9F7A501B60182E090E00E940F
:104230004B1FCE01DF91CF911F910F91FF90EF9017
:10424000DF90CF90BF90AF909F9008950F931F93F2
:10425000CF93DF938C0184E59AE00E942D1AEC0144
:104260000097E9F0C017D107B1F4BE0184E59AE0E8
:104270000E94411ABE0184E792E00E94E21ABE0148
:104280006E5F7F4FAB0181E090E0DF91CF911F9196
:104290000F910C944B1FCE010E94961AE0CFDF9134
:1042A000CF911F910F9108950F931F93CF93DF9399
:1042B0008C0184E59AE00E942D1AEC01009769F0C8
:1042C00040E150E0B801CE0102960E947D6C892B3E
:1042D00039F0CE010E94961AF0CF80E090E001C044
:1042E000CE01DF91CF911F910F910895CF92DF9270
:1042F000EF92FF920F931F93CF93DF938C016A018C
:104300007B010E945421EC01009761F484E792E064
:104310000E94BD1AEC01009721F1BC0184E59AE0EE
:104320000E94751A80E1F801DE01129601900D924B
:104330008A95E1F7C114D104E104F10441F0B70119
:10434000A601CE0142960E9459611A8E02C081E0F8
:104350008A8FA801B80180E090E00E944B1FCE0137
:1043600002C080E090E0DF91CF911F910F91FF900C
:10437000EF90DF90CF9008950F931F93CF93DF932B
:1043800084E59AE00E942D1AEC0100E010E02097ED
:1043900089F08E010E5F1F4FC8010E94D62C009736
:1043A00021F0FC0182A1811105C0CE010E94961A64
:1043B000EC01EDCFC801DF91CF911F910F910895CE
:1043C000CF93DF9384E59AE00E942D1AEC010097C9
:1043D00089F08A8D81110AC0CE0142960E946961DE
:1043E000892B21F0CE010E942621ECCFCE010E9424
:1043F000961AECCFDF91CF910895FB0141505109FE
:10440000460F571FE417F50778F4208130E0322F6C
:1044100022276181260F311D820F931F8217930778
:1044200008F401963296EECFE417F50751F4208197
:1044300030E0322F2227820F931F8217930708F450
:10444000019608950F931F93CF93DF931F921F92AE
:10445000CDB7DEB700916F0D2091142430E0322FDC
:10446000222710E0201B310B90911524290F311DBC
:104470003A83298329813A8140E250E068E174E27D
:10448000F901E80FF11DCF010E94FD2149815A81F8
:10449000B801685C7B4D0E94FD21009721F09827B0
:1044A0008927982702C08FEF9FEF0F900F90DF9121
:1044B000CF911F910F91089520916F0D422F50E0E1
:1044C000485D5F4FFA01E05FFB4D618188E0689FC6
:1044D000B0011124695F7F4FA2E08A2F90E0681736
:1044E00079070CF44FC0FA01E80FF91FE05FFB4DAC
:1044F0003081313009F442C018F0333619F018C059
:10450000AF5FEBCFA0936E0D0E94964D892B19F5EE
:1045100090916E0DE0916F0DF0E0B896E90FF11DEE
:10452000E05FFB4D8181890F8E5F80936E0D2CC003
:10453000307C303839F0303C41F03034F9F4A0931D
:104540006E0D09C0A0936E0D08C0A0936E0D8091F2
:1045500028248F3F11F481E0089530E040E050E0DE
:10456000285D3F4F4F4F5F4F2A0F311D411D511D99
:1045700062E084E00E94946382E0089581818E5F0E
:10458000A80FABCFA0936E0D80E00895FC0153817E
:10459000560F50930724872F99274281480F409345
:1045A0000624A181A0930524E081E0930424242F14
:1045B00030E02817390748F481E08A0F80930524FA
:1045C000811103C0EF5FE0930424852F90E07727EB
:1045D0008617970788F44F5F4093062441110CC05B
:1045E000809105248F5F80930524811105C08091FF
:1045F00004248F5F8093042408952091A324309194
:10460000A424BC01C90144960E94C622E091A324BF
:10461000F091A42480910424848B80910524858BBF
:1046200080910624868B80910724878B08958AE3E6
:104630000C94222286E00C94222281E10C94222206
:104640000E945A1E0E94D2640E94EB3180E0E82F43
:10465000F0E0EE0FFF1FEF5FFA4D118210828F5FC7
:104660008430A8F380E09CE2989FF0011124EB5580
:10467000FB4D15A28F5F8230B8F380E094E09093F9
:104680006C0D80936B0D80E099E1989FF0011124EF
:10469000E55FFA4D118A108A8F5F8530B0F3809301
:1046A0006D0D08950F931F93CF93DF9380916F0D3E
:1046B000882349F1C0910024D091012490E0BC01ED
:1046C000685D7F4FC617D70738F410926F0D1092B0
:1046D00001241092002417C0C81BD90B8E01085268
:1046E0001109605F7B4DA80188E394E20E94936CFE
:1046F000D0930124C093002410931424C852C09373
:10470000152410926F0DDF91CF911F910F91089595
:1047100040E04430A0F4E42FF0E051E0540FEE0FFD
:10472000FF1FEF5FFA4D208131812817390729F4E7
:1047300040936D0D118210820895452FEACF40936A
:104740006D0D089540E0443098F4E42FF0E051E01E
:10475000540FEE0FFF1FEF5FFA4D20813181232BA5
:1047600029F440936D0D918380830895452FEBCFFD
:1047700040936D0D0895BF92CF92DF92EF92FF921A
:104780000F931F93CF93DF93C091A324D091A424C0
:10479000843009F47DC32CE434E23093A2242093C6
:1047A000A1243093032420930224833061F48DA14B
:1047B0008F70833009F070C08C8D9D8D892B11F026
:1047C0000C942D2C83C0823009F084C010920124F7
:1047D0001092002410920A251092092580916A0DEA
:1047E0008F5F80936A0D811113C08091690D8F5F77
:1047F0008093690D81110CC08091680D8F5F80934B
:10480000680D811105C08091670D8F5F8093670DE2
:104810002DA1822F8D7F853051F48EA18F5F8EA3C5
:10482000883711F00C942D2C1DA20C942D2C2223D2
:1048300011F40C942D2C8C8D9D8D892B09F442C084
:104840008EA19FEF980F9EA381110C942D2C8FA108
:10485000883031F09FEF920F923048F4853039F470
:104860001DA280E880939C240E941940D2C6853006
:1048700038F493E0082E01C0990F0A94EAF701C0BA
:1048800090E39EA38F5F8FA3822F8F708330A1F060
:1048900048F4813009F4CFC4823009F0DEC71092A9
:1048A0004524CCC4863009F453C6883009F450C678
:1048B000843009F0D2C74CC684E080939C240E94C7
:1048C0001940D9C62F70233009F0C7C788E08093FC
:1048D0009C2494C6853019F5E0919F24F091A02482
:1048E00080899189892B09F4B8C71092A424109269
:1048F000A32480E494E29093A2248093A124909333
:1049000003248093022410920A2510920925109204
:1049100001241092002488E080939C24B7C28091E7
:104920001024807F803609F098C78091142490E08D
:10493000982F882720911524820F911D2091002403
:10494000309101242817390708F487C78896909377
:10495000012480930024809118248F3F09F47DC79F
:1049600086E194E290939E2480939D2410926F0D93
:104970001092700D8091162481111FC081E08093E8
:10498000700D0E945C22813009F467C720F08230EC
:1049900009F46BC712C080916F0DE82FF0E0E85C5E
:1049A000FB4DF0939E24E0939D24885F918128E045
:1049B000929F800D112480936F0D88E294E20E94F3
:1049C000141C892B09F03DC188E294E20E94171D56
:1049D000892B09F036C120912824309118242F3FCB
:1049E00009F496C02E3F29F480912924803809F4D7
:1049F0008FC03E3F29F480911924803809F48BC080
:104A00008091182490911924892B59F580911A24AA
:104A100090911B24892B29F580911C2490911D24B1
:104A2000892BF9F480911E2490911F24892BC9F4BD
:104A30008091202490912124892B99F48091222423
:104A400090912324892B69F480912424909125242A
:104A5000892B39F48091262490912724892B09F4FD
:104A600057C08091282490912924892B61F5809149
:104A70002A2490912B24892B31F580912C2490911C
:104A80002D24892B01F580912E2490912F24892BA0
:104A9000D1F48091302490913124892BA1F480911C
:104AA000322490913324892B71F480913424909195
:104AB0003524892B41F480913624811104C08091E2
:104AC0003724813029F18091002490910124813094
:104AD000954038F020E035E040E050E060E082E0D2
:104AE00009C080911724823040F420E030E0A90111
:104AF00060E083E00E949463B8C60E94F94D892B60
:104B000009F0ABC680911724815080931724ADC65D
:104B10003E3F09F0A2C680911924803809F09DC655
:104B20008091182490911924892B59F580911A2489
:104B300090911B24892B29F580911C2490911D2490
:104B4000892BF9F480911E2490911F24892BC9F49C
:104B50008091202490912124892B99F48091222402
:104B600090912324892B69F4809124249091252409
:104B7000892B39F48091262490912724892B09F4DC
:104B80006CC68091282490912924892B69F5809105
:104B90002A2490912B24892B39F580912C249091F3
:104BA0002D24892B09F580912E2490912F24892B77
:104BB000D9F48091302490913124892BA9F48091EB
:104BC000322490913324892B79F48091342490916C
:104BD0003524892B49F480913624811105C08091B8
:104BE0003724813009F439C62F3F09F436C688E2EC
:104BF00094E20E94E41B811130C620E030E0A9015C
:104C000062E081E077CF8C3220F18A3309F48FC0E3
:104C100048F18B3309F421C68C3309F07EC08091B2
:104C2000700D81FF41C086FD78C080648093700D57
:104C30000E945C22813009F410C6C0F1823009F470
:104C400014C6E0919D24F0919E2480818B32D9F688
:104C50003EC0863009F473C1813109F48CC08111E2
:104C60005CC004C08C3209F4F8C557C08091700D47
:104C700080FD53C081608093700D0E945C22813062
:104C800009F4EBC5D8F680916F0DE82FF0E0E85CF1
:104C9000FB4DF0939E24E0939D24885F9181F8E082
:104CA0009F9F800D112436C08260C0CF80916F0D10
:104CB000E82FF0E0E85CFB4DF0939E24E0939D2408
:104CC000885F918128E0929F800D112423C08091FC
:104CD000700D82FD22C084608093700D80916F0DF5
:104CE000282F30E0F901E85CFB4D9381992341F0D6
:104CF000265D3F4F442737FD4095542F60E015C097
:104D0000F0939E24E0939D24885F9181E8E09E9F2C
:104D1000800D112480936F0D94CF9F012051344258
:104D2000442737FD4095542F61E084E0E3CE0E9494
:104D30001723019609F091C5E0916F0DF0E0E85C52
:104D4000FB4D80810E948E3DE0916F0DF0E0E85CAC
:104D5000FB4D618180810E946863813021F4109253
:104D60000124109200248091002490910124892B29
:104D700009F473C57AC50E94522380910024909152
:104D80000124C097909301248093002480E494E24E
:104D90009093A2248093A12480913E2490913F245B
:104DA000892B99F400913A2410913B2401151105A7
:104DB00009F453C58BE095E29093A02480939F243F
:104DC000E0903824F09039240FC00E941D230196F2
:104DD00009F043C5E7CF88899989009771F46996EE
:104DE000D093A024C0939F24C0919F24D091A0244D
:104DF00085E2C838D80778F330C50817190779F75E
:104E00008A899B89009719F0E816F90641F788818D
:104E10009981892BE1F48A819B81892BC1F48C8152
:104E20009D81892BA1F48E819F81892B81F48885B6
:104E30009985892B61F48A859B85892B41F48C8522
:104E40009D85892B21F48E859F85892B51F040E12A
:104E500050E0BE0188E194E20E947D6C892B09F04C
:104E6000BECF1092A4241092A32482E080939C24AD
:104E700080E494E29093A2248093A124909303244D
:104E80008093022410920A25109209250E9419404D
:104E90008091092590910A25009709F4DEC49C01B0
:104EA000205D3F4F30930124209300240896909377
:104EB0001424285220931524E0919F24F091A024DB
:104EC00024892093172421E12093162498278927E9
:104ED000982790933D2480933C2410923F24109275
:104EE0003E24808991899093392480933824828943
:104EF000938990933B2480933A2480E1A8E2B4E222
:104F000001900D928A95E1F768E274E288E194E2FB
:104F10000E94C01D8CE494E29093A2248093A1246B
:104F20000E941D2380959095009711F48FEF9FEFBD
:104F300090933F2480933E240E94594F84C40E9442
:104F400052230E941A23019609F087C400913A2443
:104F500010913B240115110509F47FC4C090382439
:104F6000D0903924C114D10409F477C4DAECED2EC1
:104F7000D4E2FD2EC5EAD4E2F701B080BB20A1F057
:104F8000888999890817190779F48A899B89C8162D
:104F9000D90651F440E150E0BE0188E194E20E945C
:104FA0007D6C892B09F462C1AC96FCE2EF0EF11C1A
:104FB00024E2CD3FD20701F7809145248F738230E0
:104FC000E1F41093650D0093640D20E0243098F413
:104FD000E22FF0E0EE0FFF1FEF5FFA4D808191812D
:104FE0002F5F0817190791F710926D0D20E0C0E0B0
:104FF000D0E03CE26DC020936D0D8091452482FD90
:105000002CC484E1809345248CE390E090930124A8
:105010008093002480E58093442480913F249091E4
:10502000432490933F2430913E24909142249093C6
:105030003E243093422420913D249091412490932A
:105040003D242093412490913C2490936D0D4091F8
:10505000402440933C24909340248F5F80934324CA
:1050600081110FC081E0830F80934224811109C018
:1050700081E0820F80934124811103C09F5F909350
:10508000402480913824909139249093650D809329
:10509000640D20913A2430913B243093392420939D
:1050A000382490933B2480933A2480E1E8E1F4E2B1
:1050B000A8E2B4E201900D928A95E1F768E274E209
:1050C00088E194E20E94C01D9BC3473099F02F5F96
:1050D0002230F0F4822F90E0389FF001399FF00DDC
:1050E0001124EB55FB4D45A14111EFCF20936D0DE0
:1050F000EF0110C0209721F056A14EA1451738F7B7
:10510000389FE001399FD00D1124CB55DB4DDFCF07
:1051100020936D0D209709F4A0C3D093A424C093CD
:10512000A32483E08EA38CA31AA284E08BA31FA2E6
:1051300080913A2490913B24998B888B80913824DC
:10514000909139249B8B8A8B80E1E8E1F4E2DE01C7
:1051500001900D928A95E1F781E08DA38091670D12
:10516000888F8091680D898F8091690D8A8F8091D9
:105170006A0D8B8F81E090E09D8F8C8F80913F2412
:105180008F8B80913E248E8B80913D248D8B8091DE
:105190003C248C8B81E090E00E94FD22809144248D
:1051A000282F207F30E0213531050CF444C0829552
:1051B0008F7090E00597880F991F880F991F309185
:1051C000660D20E0E22FF0E0E817F90784F5E05FD4
:1051D000FB4D34AD311105C020936D0D1092660D5D
:1051E0002AC0313011F42F5FEDCF3230D9F445AD04
:1051F0004430C1F420936D0D3093660D86AD90E080
:10520000982F882727AD822B9093650D8093640D8E
:105210008135910510F080E590E09F8F8E8F99A3E6
:1052200088A309C045AD442311F0240FCBCF2093B0
:105230006D0D3093660D80E1809345248091452467
:1052400082608093452482E080934C2484E08093A4
:105250004D2410924E2480E580934F2480E490E00A
:10526000909301248093002480E689C2D093A424E3
:10527000C093A32410929C242091452422FF03C0B4
:105280001DA280E225C23091442432953F70330F35
:10529000330F30936D0D80910024909101248897F5
:1052A000831B910990930124809300243B2D3F7030
:1052B000323029F4422F4F73423139F428C0313053
:1052C00021F4422F4F73423011F1892B19F4822FB0
:1052D0008370E9F090913C248C8998130FC09091D1
:1052E0003D248D8998130AC090913E248E8998138D
:1052F00005C090913F248F89981749F021FF35C24E
:10530000313009F498CF323009F02FC297CF24FF03
:105310004AC06C8D7D8D6115710509F444C0CE01C4
:1053200048960E94C622309140248091042438136C
:105330003AC02091412480910524281334C09091D3
:1053400042248091062498132EC0809143244091DA
:105350000724841328C0388F298F9A8F8B8F8FA1B1
:1053600081111AC02AA18CA19EA1891B922F96950A
:1053700096959695891B280F2AA387FD81959BA159
:10538000392F36953695931B980F9BA3822F8695C0
:1053900086958695890F8CA381E080939C248CA1AF
:1053A0008EA31D8E1C8E4DA1842F8F7090E0FC016A
:1053B0003197E830F10508F050C2E656FF4F0C94E3
:1053C000056C80919C2480FF14C083E08DA380E451
:1053D00080939C241D8E1C8E80910024909101242A
:1053E000009709F407C122E420939C240E94FD2227
:1053F00001C1809145248F73823009F02EC21BCFEA
:1054000080919C2480FF6FC0809145248F738231EE
:1054100009F069C080914424282F207F30E0213595
:1054200031050CF444C082958F7090E00597880F89
:10543000991F880F991F3091660D20E0E22FF0E050
:10544000E817F90784F5E05FFB4D34AD311105C075
:1054500020936D0D1092660D2AC0313011F42F5F2C
:10546000EDCF3230D9F445AD4430C1F420936D0D09
:105470003093660D86AD90E0982F882727AD822B5C
:105480009093650D8093640D8135910510F080E552
:1054900090E09F8F8E8F99A388A309C045AD4423C8
:1054A00011F0240FCBCF20936D0D3093660D83E068
:1054B0008DA380913C248C8B80913D248D8B809199
:1054C0003E248E8B80913F248F8B81E090E00E9460
:1054D000FD2282E480939C241D8E1C8E1092012458
:1054E0001092002487C080E280939C240E9419407F
:1054F000E091A324F091A42415A27FCD80914524AE
:1055000080FF28C044FD26C08C8D9D8D892B09F01D
:10551000A4C1809100249091012401960E94FD2253
:1055200020919C24822F806180939C248091002470
:1055300090910124892B19F0226120939C240E94D0
:10554000194081E090E09D8F8C8F88E08DA31FA291
:1055500081E10CC185FF1CC080914A2490E0982F06
:10556000882720914B24822B2091A1243091A224C2
:10557000280F391F3093A2242093A12420910024C6
:1055800030910124281B390B3093012420930024EF
:105590008091002490910124009749F044FD07C0B8
:1055A00020919C24226020939C240E94FD228091C3
:1055B000462490E0982F882720914724820F911D40
:1055C0009093650D8093640D28A139A128173907A0
:1055D00010F0892B21F43093650D2093640D809198
:1055E000640D9091650D9F8F8E8F80919C248370A8
:1055F00009F433C110920A25109209250E9419401E
:1056000080919C2485FF07C010920A2510920925DD
:105610001DA284E1ABC084FF0AC010920A2510923B
:10562000092581E090E09D8F8C8F84E08FCF2091C1
:10563000092530910A2521153105E1F080FF02C0CE
:105640001D8E1C8E8C8D9D8D009781F48E8D9F8D6F
:105650008217930720F490930A258093092580915F
:10566000092590910A259D8F8C8F04C090930A255F
:10567000809309251FA28091022490910324909386
:10568000A2248093A1248091092590910A25892B39
:1056900059F08C8D9D8D009739F0CC969093012414
:1056A0008093002488E10BC080919C2481FFD5C0A9
:1056B0008CE390E0909301248093002480E1809318
:1056C00045245CC080919C2480FFC7C01DA280E15E
:1056D00080939C240E941940C0C080910024909126
:1056E0000124009711F00E94FD22909145248091A1
:1056F0009C2490FF0BC080FF06C087E08DA31EA2F4
:105700001D8E1C8E19C086E08DA316C080FF1EC0A2
:1057100085E08DA31D8E1C8EA0C0809100249091E9
:105720000124009711F00E94FD228091452480FF02
:105730000DC087E08DA31EA281E090E00E94FD22B3
:1057400080E180939C240E9419400FC08091002426
:1057500090910124892B49F480C080919C2480FF82
:105760007CC087E08DA31EA278C080E18093452491
:105770008CE390E0909301248093002480E5809353
:1057800044248C89809340248D89809341248E8980
:10579000809342248F8980934324888D80933C2476
:1057A000898D80933D248A8D80933E248B8D8093B8
:1057B0003F248889998990933924809338248A8951
:1057C0009B8990933B2480933A2480E1FE01A8E2D8
:1057D000B4E201900D928A95E1F768E274E288E103
:1057E00094E20E94C01D8DA184FF05C01092472441
:1057F0001092462405C0109246248CE380934724DF
:1058000086E08093162480916F22809317248091E4
:105810000024909101249C012852310930931424D2
:1058200088528093152410924B2410924A2410928F
:105830004924109248240E941A23809590959093B1
:1058400049248093482480E68093102410921124E8
:10585000109213241092122408C010920124109266
:10586000002410926F0D1092700D10929C24DF9105
:10587000CF911F910F91FF90EF90DF90CF90BF904D
:1058800008950E940B6C0895FC0180910224909170
:105890000324009751F02CE934E2281B390BAB01AB
:1058A0002617370744F4A90106C0AB01613571051D
:1058B00014F040E550E01416150674F450930A25D0
:1058C00040930925E817F90739F0BF01009711F453
:1058D0008CE494E20C948A6C0895CF93DF93EC01EE
:1058E000009779F085960E94703BCE010E949050FF
:1058F000BE018091940290919502DF91CF910C941A
:10590000605ADF91CF9108956DE67CE28091940218
:10591000909195020C94F058EF92FF920F931F9381
:10592000CF93DF931F921F92CDB7DEB78C0180918A
:105930009402909195022A8349830E9451597C01D7
:105940002A814981009709F180E1F801D70101908E
:105950000D928A95E1F7F70141A322A3C70185962D
:105960000E943D3B40E050E0BA01C70140960E94D2
:10597000596140E050E0BA01C70148960E94596160
:10598000F70110A2C7010E949050C7010F900F901D
:10599000DF91CF911F910F91FF90EF900895BC017F
:1059A00080919402909195020C94915A0F931F93B9
:1059B000CF93DF938C0180919402909195020E9485
:1059C0002F59EC010115110599F480E090E014C005
:1059D00040E150E0B801CE010E947D6C892B59F066
:1059E000BE0180919402909195020E941059EC01A1
:1059F000209771F7EACFCE01DF91CF911F910F91E0
:105A00000895BC0180919402909195020C94315AB2
:105A10000C94012D0E94D62C009711F00C94CF2CE1
:105A200080E090E00895EF92FF920F931F93CF9341
:105A3000DF938C017B0180E10E94F35BEC0164E069
:105A400076E00E94085C892B59F4A701B801CE01C9
:105A5000DF91CF911F910F91FF90EF900C943450F4
:105A6000DF91CF911F910F91FF90EF9008959F923A
:105A7000AF92BF92CF92DF92EF92FF920F931F935C
:105A8000CF93DF9380919402909195020E942F59B9
:105A9000EC0182E0B82E93E0A92E28EEC22E23E07E
:105AA000D22EE12CF12C34E0932E209709F490C0F3
:105AB0008AA1813039F000F18330C1F1843009F4DA
:105AC00044C07DC08E01005F1F4FC8010E94696104
:105AD000892B09F474C0CE010E945421892B51F006
